{
  "_format": "hh-sol-artifact-1",
  "contractName": "SpaceMarket",
  "sourceName": "contracts/SpaceMarket.sol",
  "abi": [
    {
      "anonymous": false,
      "inputs": [
        {
          "indexed": true,
          "internalType": "address",
          "name": "seller",
          "type": "address"
        },
        {
          "indexed": true,
          "internalType": "address",
          "name": "nftContract",
          "type": "address"
        },
        {
          "indexed": true,
          "internalType": "uint256",
          "name": "tokenId",
          "type": "uint256"
        },
        {
          "indexed": false,
          "internalType": "uint256",
          "name": "price",
          "type": "uint256"
        }
      ],
      "name": "Cancel",
      "type": "event"
    },
    {
      "anonymous": false,
      "inputs": [
        {
          "indexed": true,
          "internalType": "address",
          "name": "seller",
          "type": "address"
        },
        {
          "indexed": true,
          "internalType": "address",
          "name": "nftContract",
          "type": "address"
        },
        {
          "indexed": true,
          "internalType": "uint256",
          "name": "tokenId",
          "type": "uint256"
        },
        {
          "indexed": false,
          "internalType": "uint256",
          "name": "price",
          "type": "uint256"
        }
      ],
      "name": "Create",
      "type": "event"
    },
    {
      "anonymous": false,
      "inputs": [
        {
          "indexed": true,
          "internalType": "address",
          "name": "buyer",
          "type": "address"
        },
        {
          "indexed": true,
          "internalType": "address",
          "name": "nftContract",
          "type": "address"
        },
        {
          "indexed": true,
          "internalType": "uint256",
          "name": "tokenId",
          "type": "uint256"
        },
        {
          "indexed": false,
          "internalType": "uint256",
          "name": "price",
          "type": "uint256"
        }
      ],
      "name": "Execute",
      "type": "event"
    },
    {
      "anonymous": false,
      "inputs": [
        {
          "indexed": false,
          "internalType": "uint8",
          "name": "version",
          "type": "uint8"
        }
      ],
      "name": "Initialized",
      "type": "event"
    },
    {
      "anonymous": false,
      "inputs": [
        {
          "indexed": true,
          "internalType": "address",
          "name": "previousOwner",
          "type": "address"
        },
        {
          "indexed": true,
          "internalType": "address",
          "name": "newOwner",
          "type": "address"
        }
      ],
      "name": "OwnershipTransferred",
      "type": "event"
    },
    {
      "anonymous": false,
      "inputs": [
        {
          "indexed": true,
          "internalType": "bytes32",
          "name": "role",
          "type": "bytes32"
        },
        {
          "indexed": true,
          "internalType": "bytes32",
          "name": "previousAdminRole",
          "type": "bytes32"
        },
        {
          "indexed": true,
          "internalType": "bytes32",
          "name": "newAdminRole",
          "type": "bytes32"
        }
      ],
      "name": "RoleAdminChanged",
      "type": "event"
    },
    {
      "anonymous": false,
      "inputs": [
        {
          "indexed": true,
          "internalType": "bytes32",
          "name": "role",
          "type": "bytes32"
        },
        {
          "indexed": true,
          "internalType": "address",
          "name": "account",
          "type": "address"
        },
        {
          "indexed": true,
          "internalType": "address",
          "name": "sender",
          "type": "address"
        }
      ],
      "name": "RoleGranted",
      "type": "event"
    },
    {
      "anonymous": false,
      "inputs": [
        {
          "indexed": true,
          "internalType": "bytes32",
          "name": "role",
          "type": "bytes32"
        },
        {
          "indexed": true,
          "internalType": "address",
          "name": "account",
          "type": "address"
        },
        {
          "indexed": true,
          "internalType": "address",
          "name": "sender",
          "type": "address"
        }
      ],
      "name": "RoleRevoked",
      "type": "event"
    },
    {
      "inputs": [],
      "name": "DEFAULT_ADMIN_ROLE",
      "outputs": [
        {
          "internalType": "bytes32",
          "name": "",
          "type": "bytes32"
        }
      ],
      "stateMutability": "view",
      "type": "function"
    },
    {
      "inputs": [
        {
          "internalType": "contract IERC721",
          "name": "nftContract",
          "type": "address"
        },
        {
          "internalType": "uint256",
          "name": "tokenId",
          "type": "uint256"
        }
      ],
      "name": "cancel",
      "outputs": [],
      "stateMutability": "nonpayable",
      "type": "function"
    },
    {
      "inputs": [
        {
          "internalType": "contract IERC721",
          "name": "nftContract",
          "type": "address"
        },
        {
          "internalType": "uint256",
          "name": "tokenId",
          "type": "uint256"
        },
        {
          "internalType": "address",
          "name": "recipient",
          "type": "address"
        },
        {
          "internalType": "uint256",
          "name": "price",
          "type": "uint256"
        }
      ],
      "name": "create",
      "outputs": [
        {
          "internalType": "uint256",
          "name": "itemId",
          "type": "uint256"
        }
      ],
      "stateMutability": "nonpayable",
      "type": "function"
    },
    {
      "inputs": [
        {
          "internalType": "contract IERC721",
          "name": "nftContract",
          "type": "address"
        },
        {
          "internalType": "uint256",
          "name": "tokenId",
          "type": "uint256"
        }
      ],
      "name": "execute",
      "outputs": [],
      "stateMutability": "nonpayable",
      "type": "function"
    },
    {
      "inputs": [
        {
          "internalType": "bytes32",
          "name": "role",
          "type": "bytes32"
        }
      ],
      "name": "getRoleAdmin",
      "outputs": [
        {
          "internalType": "bytes32",
          "name": "",
          "type": "bytes32"
        }
      ],
      "stateMutability": "view",
      "type": "function"
    },
    {
      "inputs": [
        {
          "internalType": "bytes32",
          "name": "role",
          "type": "bytes32"
        },
        {
          "internalType": "uint256",
          "name": "index",
          "type": "uint256"
        }
      ],
      "name": "getRoleMember",
      "outputs": [
        {
          "internalType": "address",
          "name": "",
          "type": "address"
        }
      ],
      "stateMutability": "view",
      "type": "function"
    },
    {
      "inputs": [
        {
          "internalType": "bytes32",
          "name": "role",
          "type": "bytes32"
        }
      ],
      "name": "getRoleMemberCount",
      "outputs": [
        {
          "internalType": "uint256",
          "name": "",
          "type": "uint256"
        }
      ],
      "stateMutability": "view",
      "type": "function"
    },
    {
      "inputs": [
        {
          "internalType": "bytes32",
          "name": "role",
          "type": "bytes32"
        },
        {
          "internalType": "address",
          "name": "account",
          "type": "address"
        }
      ],
      "name": "grantRole",
      "outputs": [],
      "stateMutability": "nonpayable",
      "type": "function"
    },
    {
      "inputs": [
        {
          "internalType": "bytes32",
          "name": "role",
          "type": "bytes32"
        },
        {
          "internalType": "address",
          "name": "account",
          "type": "address"
        }
      ],
      "name": "hasRole",
      "outputs": [
        {
          "internalType": "bool",
          "name": "",
          "type": "bool"
        }
      ],
      "stateMutability": "view",
      "type": "function"
    },
    {
      "inputs": [],
      "name": "initialize",
      "outputs": [],
      "stateMutability": "nonpayable",
      "type": "function"
    },
    {
      "inputs": [
        {
          "internalType": "address",
          "name": "",
          "type": "address"
        },
        {
          "internalType": "uint256",
          "name": "",
          "type": "uint256"
        }
      ],
      "name": "itemsBy",
      "outputs": [
        {
          "internalType": "uint256",
          "name": "",
          "type": "uint256"
        }
      ],
      "stateMutability": "view",
      "type": "function"
    },
    {
      "inputs": [
        {
          "internalType": "uint256",
          "name": "",
          "type": "uint256"
        }
      ],
      "name": "itemsIds",
      "outputs": [
        {
          "internalType": "uint256",
          "name": "",
          "type": "uint256"
        }
      ],
      "stateMutability": "view",
      "type": "function"
    },
    {
      "inputs": [
        {
          "internalType": "uint256",
          "name": "",
          "type": "uint256"
        }
      ],
      "name": "itemsInfo",
      "outputs": [
        {
          "internalType": "contract IERC721",
          "name": "nftContract",
          "type": "address"
        },
        {
          "internalType": "uint256",
          "name": "tokenId",
          "type": "uint256"
        },
        {
          "internalType": "uint256",
          "name": "price",
          "type": "uint256"
        },
        {
          "internalType": "address",
          "name": "owner",
          "type": "address"
        },
        {
          "internalType": "address",
          "name": "recipient",
          "type": "address"
        },
        {
          "internalType": "uint32",
          "name": "at",
          "type": "uint32"
        },
        {
          "internalType": "enum SpaceMarket.ItemStatus",
          "name": "status",
          "type": "uint8"
        }
      ],
      "stateMutability": "view",
      "type": "function"
    },
    {
      "inputs": [],
      "name": "nextItemId",
      "outputs": [
        {
          "internalType": "uint256",
          "name": "",
          "type": "uint256"
        }
      ],
      "stateMutability": "view",
      "type": "function"
    },
    {
      "inputs": [
        {
          "internalType": "contract IERC721",
          "name": "",
          "type": "address"
        },
        {
          "internalType": "uint256",
          "name": "",
          "type": "uint256"
        }
      ],
      "name": "nftTokensToItemId",
      "outputs": [
        {
          "internalType": "uint256",
          "name": "",
          "type": "uint256"
        }
      ],
      "stateMutability": "view",
      "type": "function"
    },
    {
      "inputs": [],
      "name": "owner",
      "outputs": [
        {
          "internalType": "address",
          "name": "",
          "type": "address"
        }
      ],
      "stateMutability": "view",
      "type": "function"
    },
    {
      "inputs": [],
      "name": "renounceOwnership",
      "outputs": [],
      "stateMutability": "nonpayable",
      "type": "function"
    },
    {
      "inputs": [
        {
          "internalType": "bytes32",
          "name": "role",
          "type": "bytes32"
        },
        {
          "internalType": "address",
          "name": "account",
          "type": "address"
        }
      ],
      "name": "renounceRole",
      "outputs": [],
      "stateMutability": "nonpayable",
      "type": "function"
    },
    {
      "inputs": [
        {
          "internalType": "uint256",
          "name": "offset",
          "type": "uint256"
        },
        {
          "internalType": "uint256",
          "name": "limit",
          "type": "uint256"
        }
      ],
      "name": "retrieve",
      "outputs": [
        {
          "components": [
            {
              "internalType": "contract IERC721",
              "name": "nftContract",
              "type": "address"
            },
            {
              "internalType": "uint256",
              "name": "tokenId",
              "type": "uint256"
            },
            {
              "internalType": "uint256",
              "name": "price",
              "type": "uint256"
            },
            {
              "internalType": "address",
              "name": "owner",
              "type": "address"
            },
            {
              "internalType": "address",
              "name": "recipient",
              "type": "address"
            },
            {
              "internalType": "uint32",
              "name": "at",
              "type": "uint32"
            },
            {
              "internalType": "enum SpaceMarket.ItemStatus",
              "name": "status",
              "type": "uint8"
            }
          ],
          "internalType": "struct SpaceMarket.ItemInfo[]",
          "name": "items",
          "type": "tuple[]"
        },
        {
          "internalType": "uint256",
          "name": "left",
          "type": "uint256"
        }
      ],
      "stateMutability": "view",
      "type": "function"
    },
    {
      "inputs": [
        {
          "internalType": "address",
          "name": "owner",
          "type": "address"
        },
        {
          "internalType": "uint256",
          "name": "offset",
          "type": "uint256"
        },
        {
          "internalType": "uint256",
          "name": "limit",
          "type": "uint256"
        }
      ],
      "name": "retrieveBy",
      "outputs": [
        {
          "components": [
            {
              "internalType": "contract IERC721",
              "name": "nftContract",
              "type": "address"
            },
            {
              "internalType": "uint256",
              "name": "tokenId",
              "type": "uint256"
            },
            {
              "internalType": "uint256",
              "name": "price",
              "type": "uint256"
            },
            {
              "internalType": "address",
              "name": "owner",
              "type": "address"
            },
            {
              "internalType": "address",
              "name": "recipient",
              "type": "address"
            },
            {
              "internalType": "uint32",
              "name": "at",
              "type": "uint32"
            },
            {
              "internalType": "enum SpaceMarket.ItemStatus",
              "name": "status",
              "type": "uint8"
            }
          ],
          "internalType": "struct SpaceMarket.ItemInfo[]",
          "name": "items",
          "type": "tuple[]"
        },
        {
          "internalType": "uint256",
          "name": "left",
          "type": "uint256"
        }
      ],
      "stateMutability": "view",
      "type": "function"
    },
    {
      "inputs": [
        {
          "internalType": "bytes32",
          "name": "role",
          "type": "bytes32"
        },
        {
          "internalType": "address",
          "name": "account",
          "type": "address"
        }
      ],
      "name": "revokeRole",
      "outputs": [],
      "stateMutability": "nonpayable",
      "type": "function"
    },
    {
      "inputs": [
        {
          "internalType": "address",
          "name": "token_",
          "type": "address"
        }
      ],
      "name": "sudoUpdateToken",
      "outputs": [],
      "stateMutability": "nonpayable",
      "type": "function"
    },
    {
      "inputs": [
        {
          "internalType": "bytes4",
          "name": "interfaceId",
          "type": "bytes4"
        }
      ],
      "name": "supportsInterface",
      "outputs": [
        {
          "internalType": "bool",
          "name": "",
          "type": "bool"
        }
      ],
      "stateMutability": "view",
      "type": "function"
    },
    {
      "inputs": [],
      "name": "tokenContract",
      "outputs": [
        {
          "internalType": "contract IAntimatter",
          "name": "",
          "type": "address"
        }
      ],
      "stateMutability": "view",
      "type": "function"
    },
    {
      "inputs": [
        {
          "internalType": "address",
          "name": "newOwner",
          "type": "address"
        }
      ],
      "name": "transferOwnership",
      "outputs": [],
      "stateMutability": "nonpayable",
      "type": "function"
    },
    {
      "inputs": [],
      "name": "version",
      "outputs": [
        {
          "internalType": "string",
          "name": "",
          "type": "string"
        }
      ],
      "stateMutability": "pure",
      "type": "function"
    }
  ],
  "bytecode": "0x608060405234801561001057600080fd5b50612a32806100206000396000f3fe608060405234801561001057600080fd5b50600436106101ae5760003560e01c80639010d07c116100ee578063b83522e411610097578063d547741f11610071578063d547741f14610455578063e8b8143514610468578063f2fde38b1461047b578063fcced00e1461048e57600080fd5b8063b83522e41461041c578063ca15c8731461042f578063ce8a7da41461044257600080fd5b806398590ef9116100c857806398590ef9146103ee5780639f47a27a14610401578063a217fddf1461041457600080fd5b80639010d07c1461032a57806391d148541461033d578063975d83611461037657600080fd5b806354fd4d501161015b578063715018a611610135578063715018a6146102e85780637c252208146102f05780638129fc1c146103115780638da5cb5b1461031957600080fd5b806354fd4d501461027357806355a373d6146102b25780636a868974146102de57600080fd5b80632f2ff15d1161018c5780632f2ff15d1461023857806336568abe1461024d5780633b89bb861461026057600080fd5b806301ffc9a7146101b357806322d826ac146101db578063248a9ca314610215575b600080fd5b6101c66101c1366004612545565b6104a1565b60405190151581526020015b60405180910390f35b6102076101e936600461259c565b61013160209081526000928352604080842090915290825290205481565b6040519081526020016101d2565b6102076102233660046125c8565b600090815260c9602052604090206001015490565b61024b6102463660046125e1565b6104fd565b005b61024b61025b3660046125e1565b610527565b61024b61026e36600461259c565b6105b8565b604080518082018252600581527f312e302e30000000000000000000000000000000000000000000000000000000602082015290516101d29190612641565b610132546102c6906001600160a01b031681565b6040516001600160a01b0390911681526020016101d2565b61020761012f5481565b61024b610c27565b6103036102fe366004612674565b610c8d565b6040516101d29291906126ce565b61024b610cf8565b6065546001600160a01b03166102c6565b6102c6610338366004612674565b610d99565b6101c661034b3660046125e1565b600091825260c9602090815260408084206001600160a01b0393909316845291905290205460ff1690565b6103db6103843660046125c8565b61012d60205260009081526040902080546001820154600283015460038401546004909401546001600160a01b039384169492939192821691811690600160a01b810463ffffffff1690600160c01b900460ff1687565b6040516101d29796959493929190612779565b61024b6103fc36600461259c565b610db8565b61024b61040f3660046127cc565b611276565b610207600081565b61020761042a36600461259c565b611308565b61020761043d3660046125c8565b61133a565b6102076104503660046127e9565b611351565b61024b6104633660046125e1565b6117a5565b610303610476366004612831565b6117ca565b61024b6104893660046127cc565b61184e565b61020761049c3660046125c8565b61192d565b60007fffffffff0000000000000000000000000000000000000000000000000000000082167f5a05180f0000000000000000000000000000000000000000000000000000000014806104f757506104f78261194f565b92915050565b600082815260c96020526040902060010154610518816119e6565b61052283836119f0565b505050565b6001600160a01b03811633146105aa5760405162461bcd60e51b815260206004820152602f60248201527f416363657373436f6e74726f6c3a2063616e206f6e6c792072656e6f756e636560448201527f20726f6c657320666f722073656c66000000000000000000000000000000000060648201526084015b60405180910390fd5b6105b48282611a12565b5050565b60026001540361060a5760405162461bcd60e51b815260206004820152601f60248201527f5265656e7472616e637947756172643a207265656e7472616e742063616c6c0060448201526064016105a1565b6002600155336001600160a01b0383166106505760405162461bcd60e51b815260206004820152600760248201526611549497d3919560ca1b60448201526064016105a1565b610132546001600160a01b03166106955760405162461bcd60e51b815260206004820152600960248201526804552525f53455455560bc1b60448201526064016105a1565b60405163020604bf60e21b81526004810183905230906001600160a01b0385169063081812fc90602401602060405180830381865afa1580156106dc573d6000803e3d6000fd5b505050506040513d601f19601f820116820180604052508101906107009190612866565b6001600160a01b0316146107445760405162461bcd60e51b815260206004820152600b60248201526a4552525f415050524f564560a81b60448201526064016105a1565b6001600160a01b0383811660009081526101316020908152604080832086845282528083205480845261012d8352818420825160e0810184528154871681526001820154948101949094526002810154928401929092526003808301548616606085015260048301549586166080850152600160a01b860463ffffffff1660a0850152909460c0840191600160c01b90910460ff16908111156107e9576107e9612696565b60038111156107fa576107fa612696565b815250509050816000036108505760405162461bcd60e51b815260206004820152600d60248201527f4552525f4e4f545f464f554e440000000000000000000000000000000000000060448201526064016105a1565b60008160c00151600381111561086857610868612696565b146108b55760405162461bcd60e51b815260206004820152600c60248201527f4552525f4e4f545f4f50454e000000000000000000000000000000000000000060448201526064016105a1565b6101325460408281015190517f23b872dd0000000000000000000000000000000000000000000000000000000081526001600160a01b03868116600483015230602483015260448201929092529116906323b872dd906064016020604051808303816000875af115801561092d573d6000803e3d6000fd5b505050506040513d601f19601f820116820180604052508101906109519190612883565b61099d5760405162461bcd60e51b815260206004820152600e60248201527f4552525f4e4f545f454e4f55474800000000000000000000000000000000000060448201526064016105a1565b61013254608082015160408084015190517fa9059cbb0000000000000000000000000000000000000000000000000000000081526001600160a01b039283166004820152602481019190915291169063a9059cbb906044016020604051808303816000875af1158015610a14573d6000803e3d6000fd5b505050506040513d601f19601f82011682018060405250810190610a389190612883565b508051606082015160208301516040517f42842e0e0000000000000000000000000000000000000000000000000000000081526001600160a01b039283166004820152868316602482015260448101919091529116906342842e0e90606401600060405180830381600087803b158015610ab157600080fd5b505af1158015610ac5573d6000803e3d6000fd5b5050600360c08401818152600086815261012d6020908152604091829020875181546001600160a01b0391821673ffffffffffffffffffffffffffffffffffffffff19918216178355928901516001830155928801516002820155606088015181860180549185169190931617909155608087015160048201805460a08a015163ffffffff16600160a01b0277ffffffffffffffffffffffffffffffffffffffffffffffff19909116929094169190911792909217808355925187965090945092909160ff60c01b191690600160c01b908490811115610ba757610ba7612696565b021790555050506001600160a01b03858116600090815261013160209081526040808320888452825280832092909255838101518451858401519351938452909390811692908716917fcb964a4219ea5e454352dbf33a6f06641991d5c43205ac1676b16a3190ab29e991015b60405180910390a4505060018055505050565b6065546001600160a01b03163314610c815760405162461bcd60e51b815260206004820181905260248201527f4f776e61626c653a2063616c6c6572206973206e6f7420746865206f776e657260448201526064016105a1565b610c8b6000611a34565b565b60606000610ced61012e805480602002602001604051908101604052809291908181526020018280548015610ce157602002820191906000526020600020905b815481526020019060010190808311610ccd575b50505050508585611a93565b909590945092505050565b6000610d046001611c57565b90508015610d1c576000805461ff0019166101001790555b610d24611d8b565b610d2c611dfe565b610d34611e71565b610d3f600030611edc565b610d4a600033611edc565b600161012f558015610d96576000805461ff0019169055604051600181527f7f26b83ff96e1f2b6a682f133852f6798a09c465da95921460cefb38474024989060200160405180910390a15b50565b600082815260fb60205260408120610db19083611ee6565b9392505050565b600260015403610e0a5760405162461bcd60e51b815260206004820152601f60248201527f5265656e7472616e637947756172643a207265656e7472616e742063616c6c0060448201526064016105a1565b6002600155336001600160a01b038316610e505760405162461bcd60e51b815260206004820152600760248201526611549497d3919560ca1b60448201526064016105a1565b610132546001600160a01b0316610e955760405162461bcd60e51b815260206004820152600960248201526804552525f53455455560bc1b60448201526064016105a1565b60405163020604bf60e21b81526004810183905230906001600160a01b0385169063081812fc90602401602060405180830381865afa158015610edc573d6000803e3d6000fd5b505050506040513d601f19601f82011682018060405250810190610f009190612866565b6001600160a01b031614610f445760405162461bcd60e51b815260206004820152600b60248201526a4552525f415050524f564560a81b60448201526064016105a1565b6001600160a01b0383811660009081526101316020908152604080832086845282528083205480845261012d8352818420825160e0810184528154871681526001820154948101949094526002810154928401929092526003808301548616606085015260048301549586166080850152600160a01b860463ffffffff1660a0850152909460c0840191600160c01b90910460ff1690811115610fe957610fe9612696565b6003811115610ffa57610ffa612696565b815250509050816000036110505760405162461bcd60e51b815260206004820152600d60248201527f4552525f4e4f545f464f554e440000000000000000000000000000000000000060448201526064016105a1565b60008160c00151600381111561106857611068612696565b146110b55760405162461bcd60e51b815260206004820152600c60248201527f4552525f4e4f545f4f50454e000000000000000000000000000000000000000060448201526064016105a1565b826001600160a01b031681606001516001600160a01b03161461111a5760405162461bcd60e51b815260206004820152600d60248201527f4552525f4e4f545f4f574e45520000000000000000000000000000000000000060448201526064016105a1565b600160c0820181905250600082815261012d6020908152604091829020835181546001600160a01b0391821673ffffffffffffffffffffffffffffffffffffffff199182161783559285015160018301559284015160028201556060840151600380830180549286169290941691909117909255608084015160048201805460a087015163ffffffff16600160a01b0277ffffffffffffffffffffffffffffffffffffffffffffffff1990911692909516919091179390931780845560c08501518594929390929160ff60c01b191690600160c01b90849081111561120157611201612696565b021790555050506001600160a01b0385811660009081526101316020908152604080832088845282528083209290925583810151845160608601518685015194519485529194908116939116917f8f3655be12f02f55f4ea0fadda68acdc9d092919943c3484e9043e2f1b2f5bbc9101610c14565b6000611281816119e6565b6001600160a01b0382166112d75760405162461bcd60e51b815260206004820152600b60248201527f4552525f4144445245535300000000000000000000000000000000000000000060448201526064016105a1565b50610132805473ffffffffffffffffffffffffffffffffffffffff19166001600160a01b0392909216919091179055565b610130602052816000526040600020818154811061132557600080fd5b90600052602060002001600091509150505481565b600081815260fb602052604081206104f790611ef2565b60006002600154036113a55760405162461bcd60e51b815260206004820152601f60248201527f5265656e7472616e637947756172643a207265656e7472616e742063616c6c0060448201526064016105a1565b6002600155336001600160a01b0386166113eb5760405162461bcd60e51b815260206004820152600760248201526611549497d3919560ca1b60448201526064016105a1565b610132546001600160a01b03166114305760405162461bcd60e51b815260206004820152600960248201526804552525f53455455560bc1b60448201526064016105a1565b60405163020604bf60e21b81526004810186905230906001600160a01b0388169063081812fc90602401602060405180830381865afa158015611477573d6000803e3d6000fd5b505050506040513d601f19601f8201168201806040525081019061149b9190612866565b6001600160a01b0316146114df5760405162461bcd60e51b815260206004820152600b60248201526a4552525f415050524f564560a81b60448201526064016105a1565b6001600160a01b038616600090815261013160209081526040808320888452909152902054156115515760405162461bcd60e51b815260206004820152601260248201527f4552525f414c52454144595f455849535453000000000000000000000000000060448201526064016105a1565b60006040518060e00160405280886001600160a01b03168152602001878152602001858152602001836001600160a01b03168152602001866001600160a01b031681526020014263ffffffff168152602001600060038111156115b6576115b6612696565b905261012f54600081815261012d6020908152604091829020845181546001600160a01b0391821673ffffffffffffffffffffffffffffffffffffffff199182161783559286015160018301559285015160028201556060850151600380830180549286169290941691909117909255608085015160048201805460a088015163ffffffff16600160a01b0277ffffffffffffffffffffffffffffffffffffffffffffffff1990911692909516919091179390931780845560c086015194985094955085949093929160ff60c01b1990911690600160c01b9084908111156116a0576116a0612696565b02179055505061012e805460018181019092557fbdaadd9f750d0166045bf387a364eadd28ba243e04512a47282aa5147a68e37f018590556001600160a01b038085166000908152610130602090815260408083208054808701825590845282842001899055928c16825261013181528282208b8352905290812086905561012f8054929350916117329084906128bb565b92505081905550806020015181600001516001600160a01b031682606001516001600160a01b03167f08df6383ea19f452fa450f6bddf0a23303c8c92ce65d6d86989c0f15c66a760a846040015160405161178f91815260200190565b60405180910390a4505060018055949350505050565b600082815260c960205260409020600101546117c0816119e6565b6105228383611a12565b6001600160a01b038316600090815261013060209081526040808320805482518185028101850190935280835260609493849392919083018282801561182f57602002820191906000526020600020905b81548152602001906001019080831161181b575b50505050509050611841818686611a93565b9097909650945050505050565b6065546001600160a01b031633146118a85760405162461bcd60e51b815260206004820181905260248201527f4f776e61626c653a2063616c6c6572206973206e6f7420746865206f776e657260448201526064016105a1565b6001600160a01b0381166119245760405162461bcd60e51b815260206004820152602660248201527f4f776e61626c653a206e6577206f776e657220697320746865207a65726f206160448201527f646472657373000000000000000000000000000000000000000000000000000060648201526084016105a1565b610d9681611a34565b61012e818154811061193e57600080fd5b600091825260209091200154905081565b60007fffffffff0000000000000000000000000000000000000000000000000000000082167f7965db0b0000000000000000000000000000000000000000000000000000000014806104f757507f01ffc9a7000000000000000000000000000000000000000000000000000000007fffffffff000000000000000000000000000000000000000000000000000000008316146104f7565b610d968133611efc565b6119fa8282611f7c565b600082815260fb60205260409020610522908261201e565b611a1c8282612033565b600082815260fb6020526040902061052290826120b6565b606580546001600160a01b0383811673ffffffffffffffffffffffffffffffffffffffff19831681179093556040519116919082907f8be0079c531659141344cd1fd0a4f28419497f9722a3daafe3b4186f6b6457e090600090a35050565b6060600084518385611aa591906128bb565b1015611abb57838551611ab891906128d3565b92505b8267ffffffffffffffff811115611ad457611ad46128ea565b604051908082528060200260200182016040528015611b4257816020015b611b2f6040805160e081018252600080825260208201819052918101829052606081018290526080810182905260a081018290529060c082015290565b815260200190600190039081611af25790505b509150835b611b5184866128bb565b8111611c3457600081815261012d6020908152604091829020825160e08101845281546001600160a01b0390811682526001830154938201939093526002820154938101939093526003808201548316606085015260048201549283166080850152600160a01b830463ffffffff1660a0850152909160c0840191600160c01b90910460ff1690811115611be757611be7612696565b6003811115611bf857611bf8612696565b90525083611c0687846128d3565b81518110611c1657611c16612900565b60200260200101819052508080611c2c90612916565b915050611b47565b5082848651611c4391906128d3565b611c4d91906128d3565b9050935093915050565b60008054610100900460ff1615611cf4578160ff166001148015611c7a5750303b155b611cec5760405162461bcd60e51b815260206004820152602e60248201527f496e697469616c697a61626c653a20636f6e747261637420697320616c72656160448201527f647920696e697469616c697a656400000000000000000000000000000000000060648201526084016105a1565b506000919050565b60005460ff808416911610611d715760405162461bcd60e51b815260206004820152602e60248201527f496e697469616c697a61626c653a20636f6e747261637420697320616c72656160448201527f647920696e697469616c697a656400000000000000000000000000000000000060648201526084016105a1565b506000805460ff191660ff92909216919091179055600190565b600054610100900460ff16611df65760405162461bcd60e51b815260206004820152602b60248201527f496e697469616c697a61626c653a20636f6e7472616374206973206e6f74206960448201526a6e697469616c697a696e6760a81b60648201526084016105a1565b610c8b6120cb565b600054610100900460ff16611e695760405162461bcd60e51b815260206004820152602b60248201527f496e697469616c697a61626c653a20636f6e7472616374206973206e6f74206960448201526a6e697469616c697a696e6760a81b60648201526084016105a1565b610c8b61213f565b600054610100900460ff16610c8b5760405162461bcd60e51b815260206004820152602b60248201527f496e697469616c697a61626c653a20636f6e7472616374206973206e6f74206960448201526a6e697469616c697a696e6760a81b60648201526084016105a1565b6105b482826119f0565b6000610db183836121b0565b60006104f7825490565b600082815260c9602090815260408083206001600160a01b038516845290915290205460ff166105b457611f3a816001600160a01b031660146121da565b611f458360206121da565b604051602001611f5692919061292f565b60408051601f198184030181529082905262461bcd60e51b82526105a191600401612641565b600082815260c9602090815260408083206001600160a01b038516845290915290205460ff166105b457600082815260c9602090815260408083206001600160a01b03851684529091529020805460ff19166001179055611fda3390565b6001600160a01b0316816001600160a01b0316837f2f8788117e7eff1d82e926ec794901d17c78024a50270940304540a733656f0d60405160405180910390a45050565b6000610db1836001600160a01b038416612403565b600082815260c9602090815260408083206001600160a01b038516845290915290205460ff16156105b457600082815260c9602090815260408083206001600160a01b0385168085529252808320805460ff1916905551339285917ff6391f5c32d9c69d2a47ea670b442974b53935d1edc7fd64eb21e047a839171b9190a45050565b6000610db1836001600160a01b038416612452565b600054610100900460ff166121365760405162461bcd60e51b815260206004820152602b60248201527f496e697469616c697a61626c653a20636f6e7472616374206973206e6f74206960448201526a6e697469616c697a696e6760a81b60648201526084016105a1565b610c8b33611a34565b600054610100900460ff166121aa5760405162461bcd60e51b815260206004820152602b60248201527f496e697469616c697a61626c653a20636f6e7472616374206973206e6f74206960448201526a6e697469616c697a696e6760a81b60648201526084016105a1565b60018055565b60008260000182815481106121c7576121c7612900565b9060005260206000200154905092915050565b606060006121e98360026129b0565b6121f49060026128bb565b67ffffffffffffffff81111561220c5761220c6128ea565b6040519080825280601f01601f191660200182016040528015612236576020820181803683370190505b5090507f30000000000000000000000000000000000000000000000000000000000000008160008151811061226d5761226d612900565b60200101907effffffffffffffffffffffffffffffffffffffffffffffffffffffffffffff1916908160001a9053507f7800000000000000000000000000000000000000000000000000000000000000816001815181106122d0576122d0612900565b60200101907effffffffffffffffffffffffffffffffffffffffffffffffffffffffffffff1916908160001a905350600061230c8460026129b0565b6123179060016128bb565b90505b60018111156123b4577f303132333435363738396162636465660000000000000000000000000000000085600f166010811061235857612358612900565b1a60f81b82828151811061236e5761236e612900565b60200101907effffffffffffffffffffffffffffffffffffffffffffffffffffffffffffff1916908160001a90535060049490941c936123ad816129cf565b905061231a565b508315610db15760405162461bcd60e51b815260206004820181905260248201527f537472696e67733a20686578206c656e67746820696e73756666696369656e7460448201526064016105a1565b600081815260018301602052604081205461244a575081546001818101845560008481526020808220909301849055845484825282860190935260409020919091556104f7565b5060006104f7565b6000818152600183016020526040812054801561253b5760006124766001836128d3565b855490915060009061248a906001906128d3565b90508181146124ef5760008660000182815481106124aa576124aa612900565b90600052602060002001549050808760000184815481106124cd576124cd612900565b6000918252602080832090910192909255918252600188019052604090208390555b8554869080612500576125006129e6565b6001900381819060005260206000200160009055905585600101600086815260200190815260200160002060009055600193505050506104f7565b60009150506104f7565b60006020828403121561255757600080fd5b81357fffffffff0000000000000000000000000000000000000000000000000000000081168114610db157600080fd5b6001600160a01b0381168114610d9657600080fd5b600080604083850312156125af57600080fd5b82356125ba81612587565b946020939093013593505050565b6000602082840312156125da57600080fd5b5035919050565b600080604083850312156125f457600080fd5b82359150602083013561260681612587565b809150509250929050565b60005b8381101561262c578181015183820152602001612614565b8381111561263b576000848401525b50505050565b6020815260008251806020840152612660816040850160208701612611565b601f01601f19169190910160400192915050565b6000806040838503121561268757600080fd5b50508035926020909101359150565b634e487b7160e01b600052602160045260246000fd5b600481106126ca57634e487b7160e01b600052602160045260246000fd5b9052565b6040808252835182820181905260009190606090818501906020808901865b8381101561276557815180516001600160a01b03908116875284820151858801528882015189880152878201518116888801526080808301519091169087015260a08082015163ffffffff169087015260c09081015190612750818801836126ac565b505060e09490940193908201906001016126ed565b505095909501959095525092949350505050565b6001600160a01b038881168252602082018890526040820187905285811660608301528416608082015263ffffffff831660a082015260e081016127c060c08301846126ac565b98975050505050505050565b6000602082840312156127de57600080fd5b8135610db181612587565b600080600080608085870312156127ff57600080fd5b843561280a81612587565b935060208501359250604085013561282181612587565b9396929550929360600135925050565b60008060006060848603121561284657600080fd5b833561285181612587565b95602085013595506040909401359392505050565b60006020828403121561287857600080fd5b8151610db181612587565b60006020828403121561289557600080fd5b81518015158114610db157600080fd5b634e487b7160e01b600052601160045260246000fd5b600082198211156128ce576128ce6128a5565b500190565b6000828210156128e5576128e56128a5565b500390565b634e487b7160e01b600052604160045260246000fd5b634e487b7160e01b600052603260045260246000fd5b600060018201612928576129286128a5565b5060010190565b7f416363657373436f6e74726f6c3a206163636f756e7420000000000000000000815260008351612967816017850160208801612611565b7f206973206d697373696e6720726f6c652000000000000000000000000000000060179184019182015283516129a4816028840160208801612611565b01602801949350505050565b60008160001904831182151516156129ca576129ca6128a5565b500290565b6000816129de576129de6128a5565b506000190190565b634e487b7160e01b600052603160045260246000fdfea26469706673582212208b82c9fe989731ca2c1d59484a552f22368e4c0cca750e903e02ab640dfa00a464736f6c634300080f0033",
  "linkReferences": {},
  "deployedLinkReferences": {}
}