{
  "_format": "hh-sol-artifact-1",
  "contractName": "SpaceStaking",
  "sourceName": "contracts/SpaceStaking.sol",
  "abi": [
    {
      "anonymous": false,
      "inputs": [
        {
          "indexed": true,
          "internalType": "address",
          "name": "staker",
          "type": "address"
        },
        {
          "indexed": false,
          "internalType": "uint256",
          "name": "amount",
          "type": "uint256"
        }
      ],
      "name": "Claim",
      "type": "event"
    },
    {
      "anonymous": false,
      "inputs": [
        {
          "indexed": false,
          "internalType": "uint8",
          "name": "version",
          "type": "uint8"
        }
      ],
      "name": "Initialized",
      "type": "event"
    },
    {
      "anonymous": false,
      "inputs": [
        {
          "indexed": true,
          "internalType": "address",
          "name": "previousOwner",
          "type": "address"
        },
        {
          "indexed": true,
          "internalType": "address",
          "name": "newOwner",
          "type": "address"
        }
      ],
      "name": "OwnershipTransferred",
      "type": "event"
    },
    {
      "anonymous": false,
      "inputs": [
        {
          "indexed": true,
          "internalType": "bytes32",
          "name": "role",
          "type": "bytes32"
        },
        {
          "indexed": true,
          "internalType": "bytes32",
          "name": "previousAdminRole",
          "type": "bytes32"
        },
        {
          "indexed": true,
          "internalType": "bytes32",
          "name": "newAdminRole",
          "type": "bytes32"
        }
      ],
      "name": "RoleAdminChanged",
      "type": "event"
    },
    {
      "anonymous": false,
      "inputs": [
        {
          "indexed": true,
          "internalType": "bytes32",
          "name": "role",
          "type": "bytes32"
        },
        {
          "indexed": true,
          "internalType": "address",
          "name": "account",
          "type": "address"
        },
        {
          "indexed": true,
          "internalType": "address",
          "name": "sender",
          "type": "address"
        }
      ],
      "name": "RoleGranted",
      "type": "event"
    },
    {
      "anonymous": false,
      "inputs": [
        {
          "indexed": true,
          "internalType": "bytes32",
          "name": "role",
          "type": "bytes32"
        },
        {
          "indexed": true,
          "internalType": "address",
          "name": "account",
          "type": "address"
        },
        {
          "indexed": true,
          "internalType": "address",
          "name": "sender",
          "type": "address"
        }
      ],
      "name": "RoleRevoked",
      "type": "event"
    },
    {
      "anonymous": false,
      "inputs": [
        {
          "indexed": true,
          "internalType": "address",
          "name": "staker",
          "type": "address"
        },
        {
          "indexed": false,
          "internalType": "uint256[]",
          "name": "tokensIds",
          "type": "uint256[]"
        }
      ],
      "name": "Stake",
      "type": "event"
    },
    {
      "anonymous": false,
      "inputs": [
        {
          "indexed": true,
          "internalType": "address",
          "name": "staker",
          "type": "address"
        },
        {
          "indexed": false,
          "internalType": "uint256[]",
          "name": "tokensIds",
          "type": "uint256[]"
        }
      ],
      "name": "Unstake",
      "type": "event"
    },
    {
      "inputs": [],
      "name": "DEFAULT_ADMIN_ROLE",
      "outputs": [
        {
          "internalType": "bytes32",
          "name": "",
          "type": "bytes32"
        }
      ],
      "stateMutability": "view",
      "type": "function"
    },
    {
      "inputs": [
        {
          "internalType": "uint256[]",
          "name": "signedTokenIds",
          "type": "uint256[]"
        },
        {
          "internalType": "uint256",
          "name": "nonce",
          "type": "uint256"
        },
        {
          "internalType": "bytes",
          "name": "signature",
          "type": "bytes"
        }
      ],
      "name": "claim",
      "outputs": [],
      "stateMutability": "nonpayable",
      "type": "function"
    },
    {
      "inputs": [
        {
          "internalType": "address",
          "name": "sender",
          "type": "address"
        },
        {
          "internalType": "uint256[]",
          "name": "signedTokenIds",
          "type": "uint256[]"
        }
      ],
      "name": "claimable",
      "outputs": [
        {
          "internalType": "uint256",
          "name": "amount",
          "type": "uint256"
        },
        {
          "internalType": "uint256",
          "name": "effectiveTime",
          "type": "uint256"
        },
        {
          "internalType": "uint32",
          "name": "pairs",
          "type": "uint32"
        },
        {
          "internalType": "uint32",
          "name": "singles",
          "type": "uint32"
        }
      ],
      "stateMutability": "view",
      "type": "function"
    },
    {
      "inputs": [
        {
          "internalType": "bytes32",
          "name": "role",
          "type": "bytes32"
        }
      ],
      "name": "getRoleAdmin",
      "outputs": [
        {
          "internalType": "bytes32",
          "name": "",
          "type": "bytes32"
        }
      ],
      "stateMutability": "view",
      "type": "function"
    },
    {
      "inputs": [
        {
          "internalType": "bytes32",
          "name": "role",
          "type": "bytes32"
        },
        {
          "internalType": "uint256",
          "name": "index",
          "type": "uint256"
        }
      ],
      "name": "getRoleMember",
      "outputs": [
        {
          "internalType": "address",
          "name": "",
          "type": "address"
        }
      ],
      "stateMutability": "view",
      "type": "function"
    },
    {
      "inputs": [
        {
          "internalType": "bytes32",
          "name": "role",
          "type": "bytes32"
        }
      ],
      "name": "getRoleMemberCount",
      "outputs": [
        {
          "internalType": "uint256",
          "name": "",
          "type": "uint256"
        }
      ],
      "stateMutability": "view",
      "type": "function"
    },
    {
      "inputs": [
        {
          "internalType": "bytes32",
          "name": "role",
          "type": "bytes32"
        },
        {
          "internalType": "address",
          "name": "account",
          "type": "address"
        }
      ],
      "name": "grantRole",
      "outputs": [],
      "stateMutability": "nonpayable",
      "type": "function"
    },
    {
      "inputs": [
        {
          "internalType": "bytes32",
          "name": "role",
          "type": "bytes32"
        },
        {
          "internalType": "address",
          "name": "account",
          "type": "address"
        }
      ],
      "name": "hasRole",
      "outputs": [
        {
          "internalType": "bool",
          "name": "",
          "type": "bool"
        }
      ],
      "stateMutability": "view",
      "type": "function"
    },
    {
      "inputs": [],
      "name": "initialize",
      "outputs": [],
      "stateMutability": "nonpayable",
      "type": "function"
    },
    {
      "inputs": [],
      "name": "nftContract",
      "outputs": [
        {
          "internalType": "contract IERC721",
          "name": "",
          "type": "address"
        }
      ],
      "stateMutability": "view",
      "type": "function"
    },
    {
      "inputs": [
        {
          "internalType": "address",
          "name": "",
          "type": "address"
        },
        {
          "internalType": "address",
          "name": "from",
          "type": "address"
        },
        {
          "internalType": "uint256",
          "name": "",
          "type": "uint256"
        },
        {
          "internalType": "bytes",
          "name": "",
          "type": "bytes"
        }
      ],
      "name": "onERC721Received",
      "outputs": [
        {
          "internalType": "bytes4",
          "name": "",
          "type": "bytes4"
        }
      ],
      "stateMutability": "pure",
      "type": "function"
    },
    {
      "inputs": [],
      "name": "owner",
      "outputs": [
        {
          "internalType": "address",
          "name": "",
          "type": "address"
        }
      ],
      "stateMutability": "view",
      "type": "function"
    },
    {
      "inputs": [],
      "name": "renounceOwnership",
      "outputs": [],
      "stateMutability": "nonpayable",
      "type": "function"
    },
    {
      "inputs": [
        {
          "internalType": "bytes32",
          "name": "role",
          "type": "bytes32"
        },
        {
          "internalType": "address",
          "name": "account",
          "type": "address"
        }
      ],
      "name": "renounceRole",
      "outputs": [],
      "stateMutability": "nonpayable",
      "type": "function"
    },
    {
      "inputs": [
        {
          "internalType": "bytes32",
          "name": "role",
          "type": "bytes32"
        },
        {
          "internalType": "address",
          "name": "account",
          "type": "address"
        }
      ],
      "name": "revokeRole",
      "outputs": [],
      "stateMutability": "nonpayable",
      "type": "function"
    },
    {
      "inputs": [],
      "name": "rewardPerDay",
      "outputs": [
        {
          "internalType": "uint256",
          "name": "",
          "type": "uint256"
        }
      ],
      "stateMutability": "view",
      "type": "function"
    },
    {
      "inputs": [],
      "name": "rewardPerSecond",
      "outputs": [
        {
          "internalType": "uint256",
          "name": "",
          "type": "uint256"
        }
      ],
      "stateMutability": "view",
      "type": "function"
    },
    {
      "inputs": [],
      "name": "rewardStartTime",
      "outputs": [
        {
          "internalType": "uint256",
          "name": "",
          "type": "uint256"
        }
      ],
      "stateMutability": "view",
      "type": "function"
    },
    {
      "inputs": [],
      "name": "signerAddress",
      "outputs": [
        {
          "internalType": "address",
          "name": "",
          "type": "address"
        }
      ],
      "stateMutability": "view",
      "type": "function"
    },
    {
      "inputs": [
        {
          "internalType": "uint256[]",
          "name": "tokenIds",
          "type": "uint256[]"
        }
      ],
      "name": "stake",
      "outputs": [],
      "stateMutability": "nonpayable",
      "type": "function"
    },
    {
      "inputs": [
        {
          "internalType": "uint256",
          "name": "",
          "type": "uint256"
        }
      ],
      "name": "stakedBy",
      "outputs": [
        {
          "internalType": "address",
          "name": "",
          "type": "address"
        }
      ],
      "stateMutability": "view",
      "type": "function"
    },
    {
      "inputs": [
        {
          "internalType": "address",
          "name": "",
          "type": "address"
        }
      ],
      "name": "stakedEffectiveTime",
      "outputs": [
        {
          "internalType": "uint256",
          "name": "",
          "type": "uint256"
        }
      ],
      "stateMutability": "view",
      "type": "function"
    },
    {
      "inputs": [
        {
          "internalType": "address",
          "name": "",
          "type": "address"
        }
      ],
      "name": "stakedNftsCount",
      "outputs": [
        {
          "internalType": "uint32",
          "name": "",
          "type": "uint32"
        }
      ],
      "stateMutability": "view",
      "type": "function"
    },
    {
      "inputs": [
        {
          "internalType": "address",
          "name": "",
          "type": "address"
        },
        {
          "internalType": "uint256",
          "name": "",
          "type": "uint256"
        }
      ],
      "name": "stakedNftsEntries",
      "outputs": [
        {
          "internalType": "uint256",
          "name": "",
          "type": "uint256"
        }
      ],
      "stateMutability": "view",
      "type": "function"
    },
    {
      "inputs": [
        {
          "internalType": "address",
          "name": "nft_",
          "type": "address"
        }
      ],
      "name": "sudoUpdateNFT",
      "outputs": [],
      "stateMutability": "nonpayable",
      "type": "function"
    },
    {
      "inputs": [
        {
          "internalType": "address",
          "name": "signer_",
          "type": "address"
        }
      ],
      "name": "sudoUpdateSigner",
      "outputs": [],
      "stateMutability": "nonpayable",
      "type": "function"
    },
    {
      "inputs": [
        {
          "internalType": "address",
          "name": "token_",
          "type": "address"
        }
      ],
      "name": "sudoUpdateToken",
      "outputs": [],
      "stateMutability": "nonpayable",
      "type": "function"
    },
    {
      "inputs": [
        {
          "internalType": "bytes4",
          "name": "interfaceId",
          "type": "bytes4"
        }
      ],
      "name": "supportsInterface",
      "outputs": [
        {
          "internalType": "bool",
          "name": "",
          "type": "bool"
        }
      ],
      "stateMutability": "view",
      "type": "function"
    },
    {
      "inputs": [],
      "name": "tokenContract",
      "outputs": [
        {
          "internalType": "contract IAntimatter",
          "name": "",
          "type": "address"
        }
      ],
      "stateMutability": "view",
      "type": "function"
    },
    {
      "inputs": [
        {
          "internalType": "address",
          "name": "newOwner",
          "type": "address"
        }
      ],
      "name": "transferOwnership",
      "outputs": [],
      "stateMutability": "nonpayable",
      "type": "function"
    },
    {
      "inputs": [
        {
          "internalType": "uint256[]",
          "name": "tokenIds",
          "type": "uint256[]"
        },
        {
          "internalType": "uint256[]",
          "name": "signedTokenIds",
          "type": "uint256[]"
        },
        {
          "internalType": "uint256",
          "name": "nonce",
          "type": "uint256"
        },
        {
          "internalType": "bytes",
          "name": "signature",
          "type": "bytes"
        }
      ],
      "name": "unstake",
      "outputs": [],
      "stateMutability": "nonpayable",
      "type": "function"
    },
    {
      "inputs": [],
      "name": "version",
      "outputs": [
        {
          "internalType": "string",
          "name": "",
          "type": "string"
        }
      ],
      "stateMutability": "pure",
      "type": "function"
    }
  ],
  "bytecode": "0x608060405234801561001057600080fd5b506131db806100206000396000f3fe608060405234801561001057600080fd5b50600436106101f05760003560e01c80638da5cb5b1161010f578063af8f42b8116100a2578063d56d229d11610071578063d56d229d146104fd578063e621879714610511578063f2fde38b14610524578063fd4900711461053757600080fd5b8063af8f42b8146104ba578063c7f08649146104c4578063ca15c873146104d7578063d547741f146104ea57600080fd5b806391d14854116100de57806391d148541461043c5780639ee4af10146104755780639f47a27a1461049f578063a217fddf146104b257600080fd5b80638da5cb5b146103fd5780638f10369a1461040e5780639010d07c14610416578063908ec7cb1461042957600080fd5b806333611d4c116101875780635b7633d0116101565780635b7633d0146103c65780636d7d07f3146103da578063715018a6146103ed5780638129fc1c146103f557600080fd5b806333611d4c1461032757806336568abe1461034857806354fd4d501461035b57806355a373d61461039a57600080fd5b806322d95eac116101c357806322d95eac1461029a578063248a9ca3146102d95780632cc138be1461030a5780632f2ff15d1461031457600080fd5b806301ffc9a7146101f5578063099e7a0c1461021d5780630fbf0a9314610259578063150b7a021461026e575b600080fd5b61020861020336600461298a565b61054a565b60405190151581526020015b60405180910390f35b61024461022b3660046129cb565b61012d6020526000908152604090205463ffffffff1681565b60405163ffffffff9091168152602001610214565b61026c610267366004612aad565b61058e565b005b61028161027c366004612ae2565b6109b5565b6040516001600160e01b03199091168152602001610214565b6102ad6102a8366004612b7d565b610a38565b60408051948552602085019390935263ffffffff91821692840192909252166060820152608001610214565b6102fc6102e7366004612bcb565b600090815260c9602052604090206001015490565b604051908152602001610214565b6102fc6101325481565b61026c610322366004612be4565b610d80565b6102fc6103353660046129cb565b61012e6020526000908152604090205481565b61026c610356366004612be4565b610daa565b604080518082018252600581527f312e302e30000000000000000000000000000000000000000000000000000000602082015290516102149190612c40565b610135546103ae906001600160a01b031681565b6040516001600160a01b039091168152602001610214565b610133546103ae906001600160a01b031681565b61026c6103e8366004612ce3565b610e36565b61026c6110ef565b61026c611155565b6065546001600160a01b03166103ae565b6102fc611203565b6103ae610424366004612d75565b61121c565b61026c6104373660046129cb565b61123b565b61020861044a366004612be4565b600091825260c9602090815260408084206001600160a01b0393909316845291905290205460ff1690565b6103ae610483366004612bcb565b610130602052600090815260409020546001600160a01b031681565b61026c6104ad3660046129cb565b6112bb565b6102fc600081565b6102fc6101315481565b61026c6104d2366004612d97565b6113e4565b6102fc6104e5366004612bcb565b611450565b61026c6104f8366004612be4565b611467565b610134546103ae906001600160a01b031681565b6102fc61051f366004612e04565b61148c565b61026c6105323660046129cb565b6114be565b61026c6105453660046129cb565b61159d565b60006001600160e01b031982167f5a05180f00000000000000000000000000000000000000000000000000000000148061058857506105888261161d565b92915050565b6101345433906001600160a01b0316158015906105b65750610135546001600160a01b031615155b6106075760405162461bcd60e51b815260206004820152600960248201527f4552525f5345545550000000000000000000000000000000000000000000000060448201526064015b60405180910390fd5b610134546040517fe985e9c50000000000000000000000000000000000000000000000000000000081526001600160a01b0383811660048301523060248301529091169063e985e9c590604401602060405180830381865afa158015610671573d6000803e3d6000fd5b505050506040513d601f19601f820116820180604052508101906106959190612e2e565b6106e15760405162461bcd60e51b815260206004820152600b60248201527f4552525f415050524f564500000000000000000000000000000000000000000060448201526064016105fe565b815163ffffffff81166107365760405162461bcd60e51b815260206004820152600960248201527f4552525f454d505459000000000000000000000000000000000000000000000060448201526064016105fe565b6001600160a01b038216600090815261012d602052604081205463ffffffff16905b8263ffffffff168163ffffffff16101561087a576000858263ffffffff168151811061078657610786612e50565b602090810291909101015161013454604051632142170760e11b81526001600160a01b038881166004830152306024830152604482018490529293509116906342842e0e90606401600060405180830381600087803b1580156107e857600080fd5b505af11580156107fc573d6000803e3d6000fd5b5050505060018361080d9190612e7c565b6001600160a01b038616600081815261012f60209081526040808320805460018101825590845282842001869055948252610130905292909220805473ffffffffffffffffffffffffffffffffffffffff191690921790915591508061087281612ea4565b915050610758565b506001600160a01b038316600090815261012e602052604081205490036108bc576001600160a01b038316600090815261012e6020526040902042905561094b565b6001600160a01b038316600090815261012e60205260408120546108e09042612ec7565b6001600160a01b038516600090815261012d602052604090205490915063ffffffff80841691610911911683612ede565b61091b9190612f13565b6001600160a01b038516600090815261012e602052604081208054909190610944908490612f27565b9091555050505b6001600160a01b038316600081815261012d602052604090819020805463ffffffff191663ffffffff8516179055517fbd6539044374e650773e9c709c54c777fc38f8ff96c2619e7012817e0f987cfa906109a7908790612f3f565b60405180910390a250505050565b60006001600160a01b038516610a0d5760405162461bcd60e51b815260206004820152600f60248201527f4552525f4449524543545f4d494e54000000000000000000000000000000000060448201526064016105fe565b507f150b7a020000000000000000000000000000000000000000000000000000000095945050505050565b610135546000908190819081906001600160a01b0316610a9a5760405162461bcd60e51b815260206004820152600960248201527f4552525f5345545550000000000000000000000000000000000000000000000060448201526064016105fe565b610135546040516370a0823160e01b81523060048201526000916001600160a01b0316906370a0823190602401602060405180830381865afa158015610ae4573d6000803e3d6000fd5b505050506040513d601f19601f82011682018060405250810190610b089190612f83565b6001600160a01b038816600090815261012e602052604081205491925090610b309042612ec7565b875190915060005b8163ffffffff168163ffffffff161015610c01576000898263ffffffff1681518110610b6657610b66612e50565b60209081029190910181015160008181526101309092526040909120549091506001600160a01b038c8116911614610be05760405162461bcd60e51b815260206004820152600e60248201527f4552525f4e4f545f5354414b454400000000000000000000000000000000000060448201526064016105fe565b610beb600188612e7c565b9650508080610bf990612ea4565b915050610b38565b506001600160a01b038916600090815261012d6020526040902054610c2d90869063ffffffff16612f9c565b93506000610c39611203565b610c4963ffffffff881685612ede565b610c539190612ede565b905060006002610c61611203565b610c7163ffffffff891687612ede565b610c7b9190612ede565b610c859190612f13565b9050610c918183612f27565b985088851015610d6e576000610ca96127108b612f13565b610cb39084612f13565b90506000610cc36127108c612f13565b610ccd9084612f13565b905063ffffffff8216610ce261271089612f13565b610cec9190612ede565b63ffffffff8216610cff6127108a612f13565b610d099190612ede565b610d139190612f27565b9a50610d216127108c612f13565b610d2b9088612f13565b610d3761271088612f13565b610d419190612ede565b6001600160a01b038e16600090815261012e6020526040902054610d659190612f27565b99505050610d72565b4297505b505050505092959194509250565b600082815260c96020526040902060010154610d9b81611684565b610da5838361168e565b505050565b6001600160a01b0381163314610e285760405162461bcd60e51b815260206004820152602f60248201527f416363657373436f6e74726f6c3a2063616e206f6e6c792072656e6f756e636560448201527f20726f6c657320666f722073656c66000000000000000000000000000000000060648201526084016105fe565b610e3282826116b0565b5050565b600260015403610e885760405162461bcd60e51b815260206004820152601f60248201527f5265656e7472616e637947756172643a207265656e7472616e742063616c6c0060448201526064016105fe565b60026001558351339063ffffffff8116610ee45760405162461bcd60e51b815260206004820152600960248201527f4552525f454d505459000000000000000000000000000000000000000000000060448201526064016105fe565b6001600160a01b038216600090815261012d602052604090205463ffffffff80831691161015610f565760405162461bcd60e51b815260206004820152600c60248201527f4552525f544f4f5f4d554348000000000000000000000000000000000000000060448201526064016105fe565b610f62828686866116d2565b60005b8163ffffffff168163ffffffff1610156110a1576000878263ffffffff1681518110610f9357610f93612e50565b602090810291909101015161013454604051632142170760e11b81523060048201526001600160a01b038781166024830152604482018490529293509116906342842e0e90606401600060405180830381600087803b158015610ff557600080fd5b505af1158015611009573d6000803e3d6000fd5b505050506001600160a01b038416600090815261012d6020526040812080546001929061103d90849063ffffffff16612f9c565b92506101000a81548163ffffffff021916908363ffffffff16021790555061106584826118d3565b600090815261013060205260409020805473ffffffffffffffffffffffffffffffffffffffff191690558061109981612ea4565b915050610f65565b50816001600160a01b03167f8537ffc096ba30690173694a1630e9cdad3b912b48980d0127edbcfe80076b61876040516110db9190612f3f565b60405180910390a250506001805550505050565b6065546001600160a01b031633146111495760405162461bcd60e51b815260206004820181905260248201527f4f776e61626c653a2063616c6c6572206973206e6f7420746865206f776e657260448201526064016105fe565b6111536000611a09565b565b60006111616001611a68565b90508015611179576000805461ff0019166101001790555b611181611ba1565b611189611c14565b611191611c87565b61119c600030611cf2565b6111a7600033611cf2565b426101325568056bc75e2d63100000610131558015611200576000805461ff0019169055604051600181527f7f26b83ff96e1f2b6a682f133852f6798a09c465da95921460cefb38474024989060200160405180910390a15b50565b600062015180610131546112179190612f13565b905090565b600082815260fb602052604081206112349083611cfc565b9392505050565b600061124681611684565b6001600160a01b03821661128a5760405162461bcd60e51b815260206004820152600b60248201526a4552525f4144445245535360a81b60448201526064016105fe565b50610133805473ffffffffffffffffffffffffffffffffffffffff19166001600160a01b0392909216919091179055565b60006112c681611684565b6001600160a01b03821661130a5760405162461bcd60e51b815260206004820152600b60248201526a4552525f4144445245535360a81b60448201526064016105fe565b610135805473ffffffffffffffffffffffffffffffffffffffff19166001600160a01b0384169081179091556040516370a0823160e01b8152306004820152600091906370a0823190602401602060405180830381865afa158015611373573d6000803e3d6000fd5b505050506040513d601f19601f820116820180604052508101906113979190612f83565b11610e325760405162461bcd60e51b815260206004820152601b60248201527f73686f756c642068617320706f7369746976652062616c616e6365000000000060448201526064016105fe565b6002600154036114365760405162461bcd60e51b815260206004820152601f60248201527f5265656e7472616e637947756172643a207265656e7472616e742063616c6c0060448201526064016105fe565b6002600155611447338484846116d2565b50506001805550565b600081815260fb6020526040812061058890611d08565b600082815260c9602052604090206001015461148281611684565b610da583836116b0565b61012f60205281600052604060002081815481106114a957600080fd5b90600052602060002001600091509150505481565b6065546001600160a01b031633146115185760405162461bcd60e51b815260206004820181905260248201527f4f776e61626c653a2063616c6c6572206973206e6f7420746865206f776e657260448201526064016105fe565b6001600160a01b0381166115945760405162461bcd60e51b815260206004820152602660248201527f4f776e61626c653a206e6577206f776e657220697320746865207a65726f206160448201527f646472657373000000000000000000000000000000000000000000000000000060648201526084016105fe565b61120081611a09565b60006115a881611684565b6001600160a01b0382166115ec5760405162461bcd60e51b815260206004820152600b60248201526a4552525f4144445245535360a81b60448201526064016105fe565b50610134805473ffffffffffffffffffffffffffffffffffffffff19166001600160a01b0392909216919091179055565b60006001600160e01b031982167f7965db0b00000000000000000000000000000000000000000000000000000000148061058857507f01ffc9a7000000000000000000000000000000000000000000000000000000006001600160e01b0319831614610588565b6112008133611d12565b6116988282611d92565b600082815260fb60205260409020610da59082611e34565b6116ba8282611e49565b600082815260fb60205260409020610da59082611ecc565b60006116dd33611ee1565b83856040516020016116f193929190612fc1565b6040516020818303038152906040529050600061170d8261207c565b9050600061171b82856120b7565b610133549091506001600160a01b0380831691161461177c5760405162461bcd60e51b815260206004820152600d60248201527f4552525f57524f4e475f5349470000000000000000000000000000000000000060448201526064016105fe565b6000806117898989610a38565b50506001600160a01b038b8116600081815261012e6020526040908190208490556101355490517fa9059cbb000000000000000000000000000000000000000000000000000000008152600481019290925260248201859052939550919350919091169063a9059cbb906044016020604051808303816000875af1158015611815573d6000803e3d6000fd5b505050506040513d601f19601f820116820180604052508101906118399190612e2e565b6118855760405162461bcd60e51b815260206004820152600e60248201527f4552525f434c41494d5f4641494c00000000000000000000000000000000000060448201526064016105fe565b886001600160a01b03167f47cee97cb7acd717b3c0aa1435d004cd5b3c8c57d70dbceb4e4458bbd60e39d4836040516118c091815260200190565b60405180910390a2505050505050505050565b6001600160a01b038216600090815261012f60205260408120805490915b8163ffffffff168163ffffffff1610156119c05783838263ffffffff168154811061191e5761191e612e50565b9060005260206000200154036119ae578261193a600184612f9c565b63ffffffff168154811061195057611950612e50565b9060005260206000200154838263ffffffff168154811061197357611973612e50565b90600052602060002001819055508280548061199157611991613011565b600190038181906000526020600020016000905590555050505050565b806119b881612ea4565b9150506118f1565b5060405162461bcd60e51b815260206004820152600d60248201527f4552525f4e4f545f464f554e440000000000000000000000000000000000000060448201526064016105fe565b606580546001600160a01b0383811673ffffffffffffffffffffffffffffffffffffffff19831681179093556040519116919082907f8be0079c531659141344cd1fd0a4f28419497f9722a3daafe3b4186f6b6457e090600090a35050565b60008054610100900460ff1615611b05578160ff166001148015611a8b5750303b155b611afd5760405162461bcd60e51b815260206004820152602e60248201527f496e697469616c697a61626c653a20636f6e747261637420697320616c72656160448201527f647920696e697469616c697a656400000000000000000000000000000000000060648201526084016105fe565b506000919050565b60005460ff808416911610611b825760405162461bcd60e51b815260206004820152602e60248201527f496e697469616c697a61626c653a20636f6e747261637420697320616c72656160448201527f647920696e697469616c697a656400000000000000000000000000000000000060648201526084016105fe565b506000805460ff191660ff92909216919091179055600190565b919050565b600054610100900460ff16611c0c5760405162461bcd60e51b815260206004820152602b60248201527f496e697469616c697a61626c653a20636f6e7472616374206973206e6f74206960448201526a6e697469616c697a696e6760a81b60648201526084016105fe565b6111536120db565b600054610100900460ff16611c7f5760405162461bcd60e51b815260206004820152602b60248201527f496e697469616c697a61626c653a20636f6e7472616374206973206e6f74206960448201526a6e697469616c697a696e6760a81b60648201526084016105fe565b61115361214f565b600054610100900460ff166111535760405162461bcd60e51b815260206004820152602b60248201527f496e697469616c697a61626c653a20636f6e7472616374206973206e6f74206960448201526a6e697469616c697a696e6760a81b60648201526084016105fe565b610e32828261168e565b600061123483836121c0565b6000610588825490565b600082815260c9602090815260408083206001600160a01b038516845290915290205460ff16610e3257611d50816001600160a01b031660146121ea565b611d5b8360206121ea565b604051602001611d6c929190613027565b60408051601f198184030181529082905262461bcd60e51b82526105fe91600401612c40565b600082815260c9602090815260408083206001600160a01b038516845290915290205460ff16610e3257600082815260c9602090815260408083206001600160a01b03851684529091529020805460ff19166001179055611df03390565b6001600160a01b0316816001600160a01b0316837f2f8788117e7eff1d82e926ec794901d17c78024a50270940304540a733656f0d60405160405180910390a45050565b6000611234836001600160a01b0384166123af565b600082815260c9602090815260408083206001600160a01b038516845290915290205460ff1615610e3257600082815260c9602090815260408083206001600160a01b0385168085529252808320805460ff1916905551339285917ff6391f5c32d9c69d2a47ea670b442974b53935d1edc7fd64eb21e047a839171b9190a45050565b6000611234836001600160a01b0384166123fe565b60408051602a8082526060828101909352600091906020820181803683370190505090506000839050600360fc1b82600081518110611f2257611f22612e50565b60200101906001600160f81b031916908160001a9053507f580000000000000000000000000000000000000000000000000000000000000082600181518110611f6d57611f6d612e50565b60200101906001600160f81b031916908160001a90535060005b6014811015612073576000611f9d826013612ec7565b611fa8906008612ede565b6001600160a01b038416901c9050600f600482901c166000611fcd60f08416846130a8565b9050611fd8826124f1565b86611fe4866002612ede565b611fef906002612f27565b81518110611fff57611fff612e50565b60200101906001600160f81b031916908160001a90535061201f816124f1565b8661202b866002612ede565b612036906003612f27565b8151811061204657612046612e50565b60200101906001600160f81b031916908160001a905350505050808061206b906130cb565b915050611f87565b50909392505050565b6000612088825161251e565b8260405160200161209a9291906130e4565b604051602081830303815290604052805190602001209050919050565b60008060006120c68585612627565b915091506120d381612695565b509392505050565b600054610100900460ff166121465760405162461bcd60e51b815260206004820152602b60248201527f496e697469616c697a61626c653a20636f6e7472616374206973206e6f74206960448201526a6e697469616c697a696e6760a81b60648201526084016105fe565b61115333611a09565b600054610100900460ff166121ba5760405162461bcd60e51b815260206004820152602b60248201527f496e697469616c697a61626c653a20636f6e7472616374206973206e6f74206960448201526a6e697469616c697a696e6760a81b60648201526084016105fe565b60018055565b60008260000182815481106121d7576121d7612e50565b9060005260206000200154905092915050565b606060006121f9836002612ede565b612204906002612f27565b67ffffffffffffffff81111561221c5761221c6129e6565b6040519080825280601f01601f191660200182016040528015612246576020820181803683370190505b509050600360fc1b8160008151811061226157612261612e50565b60200101906001600160f81b031916908160001a9053507f7800000000000000000000000000000000000000000000000000000000000000816001815181106122ac576122ac612e50565b60200101906001600160f81b031916908160001a90535060006122d0846002612ede565b6122db906001612f27565b90505b6001811115612360577f303132333435363738396162636465660000000000000000000000000000000085600f166010811061231c5761231c612e50565b1a60f81b82828151811061233257612332612e50565b60200101906001600160f81b031916908160001a90535060049490941c936123598161313f565b90506122de565b5083156112345760405162461bcd60e51b815260206004820181905260248201527f537472696e67733a20686578206c656e67746820696e73756666696369656e7460448201526064016105fe565b60008181526001830160205260408120546123f657508154600181810184556000848152602080822090930184905584548482528286019093526040902091909155610588565b506000610588565b600081815260018301602052604081205480156124e7576000612422600183612ec7565b855490915060009061243690600190612ec7565b905081811461249b57600086600001828154811061245657612456612e50565b906000526020600020015490508087600001848154811061247957612479612e50565b6000918252602080832090910192909255918252600188019052604090208390555b85548690806124ac576124ac613011565b600190038181906000526020600020016000905590558560010160008681526020019081526020016000206000905560019350505050610588565b6000915050610588565b6000600a8260ff1610156125135761250a826030613156565b60f81b92915050565b61250a826037613156565b6060816000036125455750506040805180820190915260018152600360fc1b602082015290565b8160005b811561256f5780612559816130cb565b91506125689050600a83612f13565b9150612549565b60008167ffffffffffffffff81111561258a5761258a6129e6565b6040519080825280601f01601f1916602001820160405280156125b4576020820181803683370190505b5090505b841561261f576125c9600183612ec7565b91506125d6600a8661317b565b6125e1906030612f27565b60f81b8183815181106125f6576125f6612e50565b60200101906001600160f81b031916908160001a905350612618600a86612f13565b94506125b8565b949350505050565b600080825160410361265d5760208301516040840151606085015160001a6126518782858561284b565b9450945050505061268e565b8251604003612686576020830151604084015161267b868383612938565b93509350505061268e565b506000905060025b9250929050565b60008160048111156126a9576126a961318f565b036126b15750565b60018160048111156126c5576126c561318f565b036127125760405162461bcd60e51b815260206004820152601860248201527f45434453413a20696e76616c6964207369676e6174757265000000000000000060448201526064016105fe565b60028160048111156127265761272661318f565b036127735760405162461bcd60e51b815260206004820152601f60248201527f45434453413a20696e76616c6964207369676e6174757265206c656e6774680060448201526064016105fe565b60038160048111156127875761278761318f565b036127df5760405162461bcd60e51b815260206004820152602260248201527f45434453413a20696e76616c6964207369676e6174757265202773272076616c604482015261756560f01b60648201526084016105fe565b60048160048111156127f3576127f361318f565b036112005760405162461bcd60e51b815260206004820152602260248201527f45434453413a20696e76616c6964207369676e6174757265202776272076616c604482015261756560f01b60648201526084016105fe565b6000807f7fffffffffffffffffffffffffffffff5d576e7357a4501ddfe92f46681b20a0831115612882575060009050600361292f565b8460ff16601b1415801561289a57508460ff16601c14155b156128ab575060009050600461292f565b6040805160008082526020820180845289905260ff881692820192909252606081018690526080810185905260019060a0016020604051602081039080840390855afa1580156128ff573d6000803e3d6000fd5b5050604051601f1901519150506001600160a01b0381166129285760006001925092505061292f565b9150600090505b94509492505050565b6000807f7fffffffffffffffffffffffffffffffffffffffffffffffffffffffffffffff83168161296e60ff86901c601b612f27565b905061297c8782888561284b565b935093505050935093915050565b60006020828403121561299c57600080fd5b81356001600160e01b03198116811461123457600080fd5b80356001600160a01b0381168114611b9c57600080fd5b6000602082840312156129dd57600080fd5b611234826129b4565b634e487b7160e01b600052604160045260246000fd5b604051601f8201601f1916810167ffffffffffffffff81118282101715612a2557612a256129e6565b604052919050565b600082601f830112612a3e57600080fd5b8135602067ffffffffffffffff821115612a5a57612a5a6129e6565b8160051b612a698282016129fc565b9283528481018201928281019087851115612a8357600080fd5b83870192505b84831015612aa257823582529183019190830190612a89565b979650505050505050565b600060208284031215612abf57600080fd5b813567ffffffffffffffff811115612ad657600080fd5b61261f84828501612a2d565b600080600080600060808688031215612afa57600080fd5b612b03866129b4565b9450612b11602087016129b4565b935060408601359250606086013567ffffffffffffffff80821115612b3557600080fd5b818801915088601f830112612b4957600080fd5b813581811115612b5857600080fd5b896020828501011115612b6a57600080fd5b9699959850939650602001949392505050565b60008060408385031215612b9057600080fd5b612b99836129b4565b9150602083013567ffffffffffffffff811115612bb557600080fd5b612bc185828601612a2d565b9150509250929050565b600060208284031215612bdd57600080fd5b5035919050565b60008060408385031215612bf757600080fd5b82359150612c07602084016129b4565b90509250929050565b60005b83811015612c2b578181015183820152602001612c13565b83811115612c3a576000848401525b50505050565b6020815260008251806020840152612c5f816040850160208701612c10565b601f01601f19169190910160400192915050565b600082601f830112612c8457600080fd5b813567ffffffffffffffff811115612c9e57612c9e6129e6565b612cb1601f8201601f19166020016129fc565b818152846020838601011115612cc657600080fd5b816020850160208301376000918101602001919091529392505050565b60008060008060808587031215612cf957600080fd5b843567ffffffffffffffff80821115612d1157600080fd5b612d1d88838901612a2d565b95506020870135915080821115612d3357600080fd5b612d3f88838901612a2d565b9450604087013593506060870135915080821115612d5c57600080fd5b50612d6987828801612c73565b91505092959194509250565b60008060408385031215612d8857600080fd5b50508035926020909101359150565b600080600060608486031215612dac57600080fd5b833567ffffffffffffffff80821115612dc457600080fd5b612dd087838801612a2d565b9450602086013593506040860135915080821115612ded57600080fd5b50612dfa86828701612c73565b9150509250925092565b60008060408385031215612e1757600080fd5b612e20836129b4565b946020939093013593505050565b600060208284031215612e4057600080fd5b8151801515811461123457600080fd5b634e487b7160e01b600052603260045260246000fd5b634e487b7160e01b600052601160045260246000fd5b600063ffffffff808316818516808303821115612e9b57612e9b612e66565b01949350505050565b600063ffffffff808316818103612ebd57612ebd612e66565b6001019392505050565b600082821015612ed957612ed9612e66565b500390565b6000816000190483118215151615612ef857612ef8612e66565b500290565b634e487b7160e01b600052601260045260246000fd5b600082612f2257612f22612efd565b500490565b60008219821115612f3a57612f3a612e66565b500190565b6020808252825182820181905260009190848201906040850190845b81811015612f7757835183529284019291840191600101612f5b565b50909695505050505050565b600060208284031215612f9557600080fd5b5051919050565b600063ffffffff83811690831681811015612fb957612fb9612e66565b039392505050565b600084516020612fd48285838a01612c10565b9083018581528451908201919085820160005b8281101561300357815185529383019390830190600101612fe7565b509298975050505050505050565b634e487b7160e01b600052603160045260246000fd5b7f416363657373436f6e74726f6c3a206163636f756e742000000000000000000081526000835161305f816017850160208801612c10565b7f206973206d697373696e6720726f6c6520000000000000000000000000000000601791840191820152835161309c816028840160208801612c10565b01602801949350505050565b600060ff821660ff8416808210156130c2576130c2612e66565b90039392505050565b6000600182016130dd576130dd612e66565b5060010190565b7f19457468657265756d205369676e6564204d6573736167653a0a00000000000081526000835161311c81601a850160208801612c10565b83519083019061313381601a840160208801612c10565b01601a01949350505050565b60008161314e5761314e612e66565b506000190190565b600060ff821660ff84168060ff0382111561317357613173612e66565b019392505050565b60008261318a5761318a612efd565b500690565b634e487b7160e01b600052602160045260246000fdfea26469706673582212201ce4d8a816ab577e0f2ffd5214217066584fbfa1c6a3e8177e83e63d7128db9a64736f6c634300080f0033",
  "linkReferences": {},
  "deployedLinkReferences": {}
}