{
  "_format": "hh-sol-artifact-1",
  "contractName": "PolyBulls",
  "sourceName": "contracts/PolyBulls721A.sol",
  "abi": [
    {
      "inputs": [],
      "name": "ApprovalCallerNotOwnerNorApproved",
      "type": "error"
    },
    {
      "inputs": [],
      "name": "ApprovalQueryForNonexistentToken",
      "type": "error"
    },
    {
      "inputs": [],
      "name": "ApproveToCaller",
      "type": "error"
    },
    {
      "inputs": [],
      "name": "BalanceQueryForZeroAddress",
      "type": "error"
    },
    {
      "inputs": [],
      "name": "InvalidQueryRange",
      "type": "error"
    },
    {
      "inputs": [],
      "name": "MintERC2309QuantityExceedsLimit",
      "type": "error"
    },
    {
      "inputs": [],
      "name": "MintToZeroAddress",
      "type": "error"
    },
    {
      "inputs": [],
      "name": "MintZeroQuantity",
      "type": "error"
    },
    {
      "inputs": [],
      "name": "OwnerQueryForNonexistentToken",
      "type": "error"
    },
    {
      "inputs": [],
      "name": "OwnershipNotInitializedForExtraData",
      "type": "error"
    },
    {
      "inputs": [],
      "name": "TransferCallerNotOwnerNorApproved",
      "type": "error"
    },
    {
      "inputs": [],
      "name": "TransferFromIncorrectOwner",
      "type": "error"
    },
    {
      "inputs": [],
      "name": "TransferToNonERC721ReceiverImplementer",
      "type": "error"
    },
    {
      "inputs": [],
      "name": "TransferToZeroAddress",
      "type": "error"
    },
    {
      "inputs": [],
      "name": "URIQueryForNonexistentToken",
      "type": "error"
    },
    {
      "anonymous": false,
      "inputs": [
        {
          "indexed": true,
          "internalType": "address",
          "name": "owner",
          "type": "address"
        },
        {
          "indexed": true,
          "internalType": "address",
          "name": "approved",
          "type": "address"
        },
        {
          "indexed": true,
          "internalType": "uint256",
          "name": "tokenId",
          "type": "uint256"
        }
      ],
      "name": "Approval",
      "type": "event"
    },
    {
      "anonymous": false,
      "inputs": [
        {
          "indexed": true,
          "internalType": "address",
          "name": "owner",
          "type": "address"
        },
        {
          "indexed": true,
          "internalType": "address",
          "name": "operator",
          "type": "address"
        },
        {
          "indexed": false,
          "internalType": "bool",
          "name": "approved",
          "type": "bool"
        }
      ],
      "name": "ApprovalForAll",
      "type": "event"
    },
    {
      "anonymous": false,
      "inputs": [
        {
          "indexed": true,
          "internalType": "uint256",
          "name": "fromTokenId",
          "type": "uint256"
        },
        {
          "indexed": false,
          "internalType": "uint256",
          "name": "toTokenId",
          "type": "uint256"
        },
        {
          "indexed": true,
          "internalType": "address",
          "name": "from",
          "type": "address"
        },
        {
          "indexed": true,
          "internalType": "address",
          "name": "to",
          "type": "address"
        }
      ],
      "name": "ConsecutiveTransfer",
      "type": "event"
    },
    {
      "anonymous": false,
      "inputs": [
        {
          "indexed": false,
          "internalType": "uint8",
          "name": "version",
          "type": "uint8"
        }
      ],
      "name": "Initialized",
      "type": "event"
    },
    {
      "anonymous": false,
      "inputs": [
        {
          "indexed": true,
          "internalType": "address",
          "name": "previousOwner",
          "type": "address"
        },
        {
          "indexed": true,
          "internalType": "address",
          "name": "newOwner",
          "type": "address"
        }
      ],
      "name": "OwnershipTransferred",
      "type": "event"
    },
    {
      "anonymous": false,
      "inputs": [
        {
          "indexed": true,
          "internalType": "address",
          "name": "from",
          "type": "address"
        },
        {
          "indexed": true,
          "internalType": "address",
          "name": "to",
          "type": "address"
        },
        {
          "indexed": true,
          "internalType": "uint256",
          "name": "tokenId",
          "type": "uint256"
        }
      ],
      "name": "Transfer",
      "type": "event"
    },
    {
      "inputs": [
        {
          "internalType": "address",
          "name": "to",
          "type": "address"
        },
        {
          "internalType": "uint256",
          "name": "tokenId",
          "type": "uint256"
        }
      ],
      "name": "approve",
      "outputs": [],
      "stateMutability": "nonpayable",
      "type": "function"
    },
    {
      "inputs": [
        {
          "internalType": "address",
          "name": "owner",
          "type": "address"
        }
      ],
      "name": "balanceOf",
      "outputs": [
        {
          "internalType": "uint256",
          "name": "",
          "type": "uint256"
        }
      ],
      "stateMutability": "view",
      "type": "function"
    },
    {
      "inputs": [
        {
          "internalType": "uint256",
          "name": "tokenId",
          "type": "uint256"
        }
      ],
      "name": "burn",
      "outputs": [],
      "stateMutability": "nonpayable",
      "type": "function"
    },
    {
      "inputs": [
        {
          "internalType": "uint256",
          "name": "tokenId",
          "type": "uint256"
        }
      ],
      "name": "explicitOwnershipOf",
      "outputs": [
        {
          "components": [
            {
              "internalType": "address",
              "name": "addr",
              "type": "address"
            },
            {
              "internalType": "uint64",
              "name": "startTimestamp",
              "type": "uint64"
            },
            {
              "internalType": "bool",
              "name": "burned",
              "type": "bool"
            },
            {
              "internalType": "uint24",
              "name": "extraData",
              "type": "uint24"
            }
          ],
          "internalType": "struct IERC721AUpgradeable.TokenOwnership",
          "name": "",
          "type": "tuple"
        }
      ],
      "stateMutability": "view",
      "type": "function"
    },
    {
      "inputs": [
        {
          "internalType": "uint256[]",
          "name": "tokenIds",
          "type": "uint256[]"
        }
      ],
      "name": "explicitOwnershipsOf",
      "outputs": [
        {
          "components": [
            {
              "internalType": "address",
              "name": "addr",
              "type": "address"
            },
            {
              "internalType": "uint64",
              "name": "startTimestamp",
              "type": "uint64"
            },
            {
              "internalType": "bool",
              "name": "burned",
              "type": "bool"
            },
            {
              "internalType": "uint24",
              "name": "extraData",
              "type": "uint24"
            }
          ],
          "internalType": "struct IERC721AUpgradeable.TokenOwnership[]",
          "name": "",
          "type": "tuple[]"
        }
      ],
      "stateMutability": "view",
      "type": "function"
    },
    {
      "inputs": [
        {
          "internalType": "uint256",
          "name": "tokenId",
          "type": "uint256"
        }
      ],
      "name": "getApproved",
      "outputs": [
        {
          "internalType": "address",
          "name": "",
          "type": "address"
        }
      ],
      "stateMutability": "view",
      "type": "function"
    },
    {
      "inputs": [
        {
          "internalType": "uint256",
          "name": "tokenId",
          "type": "uint256"
        }
      ],
      "name": "getOwnershipData",
      "outputs": [
        {
          "components": [
            {
              "internalType": "address",
              "name": "addr",
              "type": "address"
            },
            {
              "internalType": "uint64",
              "name": "startTimestamp",
              "type": "uint64"
            },
            {
              "internalType": "bool",
              "name": "burned",
              "type": "bool"
            },
            {
              "internalType": "uint24",
              "name": "extraData",
              "type": "uint24"
            }
          ],
          "internalType": "struct IERC721AUpgradeable.TokenOwnership",
          "name": "",
          "type": "tuple"
        }
      ],
      "stateMutability": "view",
      "type": "function"
    },
    {
      "inputs": [
        {
          "internalType": "string",
          "name": "name_",
          "type": "string"
        },
        {
          "internalType": "string",
          "name": "symbol_",
          "type": "string"
        }
      ],
      "name": "initialize",
      "outputs": [],
      "stateMutability": "nonpayable",
      "type": "function"
    },
    {
      "inputs": [
        {
          "internalType": "address",
          "name": "owner",
          "type": "address"
        },
        {
          "internalType": "address",
          "name": "operator",
          "type": "address"
        }
      ],
      "name": "isApprovedForAll",
      "outputs": [
        {
          "internalType": "bool",
          "name": "",
          "type": "bool"
        }
      ],
      "stateMutability": "view",
      "type": "function"
    },
    {
      "inputs": [],
      "name": "name",
      "outputs": [
        {
          "internalType": "string",
          "name": "",
          "type": "string"
        }
      ],
      "stateMutability": "view",
      "type": "function"
    },
    {
      "inputs": [
        {
          "internalType": "address",
          "name": "owner",
          "type": "address"
        }
      ],
      "name": "numberMinted",
      "outputs": [
        {
          "internalType": "uint256",
          "name": "",
          "type": "uint256"
        }
      ],
      "stateMutability": "view",
      "type": "function"
    },
    {
      "inputs": [],
      "name": "owner",
      "outputs": [
        {
          "internalType": "address",
          "name": "",
          "type": "address"
        }
      ],
      "stateMutability": "view",
      "type": "function"
    },
    {
      "inputs": [
        {
          "internalType": "uint256",
          "name": "tokenId",
          "type": "uint256"
        }
      ],
      "name": "ownerOf",
      "outputs": [
        {
          "internalType": "address",
          "name": "",
          "type": "address"
        }
      ],
      "stateMutability": "view",
      "type": "function"
    },
    {
      "inputs": [],
      "name": "renounceOwnership",
      "outputs": [],
      "stateMutability": "nonpayable",
      "type": "function"
    },
    {
      "inputs": [
        {
          "internalType": "address",
          "name": "from",
          "type": "address"
        },
        {
          "internalType": "address",
          "name": "to",
          "type": "address"
        },
        {
          "internalType": "uint256",
          "name": "tokenId",
          "type": "uint256"
        }
      ],
      "name": "safeTransferFrom",
      "outputs": [],
      "stateMutability": "nonpayable",
      "type": "function"
    },
    {
      "inputs": [
        {
          "internalType": "address",
          "name": "from",
          "type": "address"
        },
        {
          "internalType": "address",
          "name": "to",
          "type": "address"
        },
        {
          "internalType": "uint256",
          "name": "tokenId",
          "type": "uint256"
        },
        {
          "internalType": "bytes",
          "name": "_data",
          "type": "bytes"
        }
      ],
      "name": "safeTransferFrom",
      "outputs": [],
      "stateMutability": "nonpayable",
      "type": "function"
    },
    {
      "inputs": [
        {
          "internalType": "address",
          "name": "operator",
          "type": "address"
        },
        {
          "internalType": "bool",
          "name": "approved",
          "type": "bool"
        }
      ],
      "name": "setApprovalForAll",
      "outputs": [],
      "stateMutability": "nonpayable",
      "type": "function"
    },
    {
      "inputs": [
        {
          "internalType": "string",
          "name": "baseURI",
          "type": "string"
        }
      ],
      "name": "setBaseURI",
      "outputs": [],
      "stateMutability": "nonpayable",
      "type": "function"
    },
    {
      "inputs": [
        {
          "internalType": "address",
          "name": "to",
          "type": "address"
        },
        {
          "internalType": "uint256",
          "name": "quantity",
          "type": "uint256"
        }
      ],
      "name": "sudoMint",
      "outputs": [],
      "stateMutability": "payable",
      "type": "function"
    },
    {
      "inputs": [
        {
          "internalType": "bytes4",
          "name": "interfaceId",
          "type": "bytes4"
        }
      ],
      "name": "supportsInterface",
      "outputs": [
        {
          "internalType": "bool",
          "name": "",
          "type": "bool"
        }
      ],
      "stateMutability": "view",
      "type": "function"
    },
    {
      "inputs": [],
      "name": "symbol",
      "outputs": [
        {
          "internalType": "string",
          "name": "",
          "type": "string"
        }
      ],
      "stateMutability": "view",
      "type": "function"
    },
    {
      "inputs": [
        {
          "internalType": "uint256",
          "name": "tokenId",
          "type": "uint256"
        }
      ],
      "name": "tokenURI",
      "outputs": [
        {
          "internalType": "string",
          "name": "",
          "type": "string"
        }
      ],
      "stateMutability": "view",
      "type": "function"
    },
    {
      "inputs": [
        {
          "internalType": "address",
          "name": "owner",
          "type": "address"
        }
      ],
      "name": "tokensOfOwner",
      "outputs": [
        {
          "internalType": "uint256[]",
          "name": "",
          "type": "uint256[]"
        }
      ],
      "stateMutability": "view",
      "type": "function"
    },
    {
      "inputs": [
        {
          "internalType": "address",
          "name": "owner",
          "type": "address"
        },
        {
          "internalType": "uint256",
          "name": "start",
          "type": "uint256"
        },
        {
          "internalType": "uint256",
          "name": "stop",
          "type": "uint256"
        }
      ],
      "name": "tokensOfOwnerIn",
      "outputs": [
        {
          "internalType": "uint256[]",
          "name": "",
          "type": "uint256[]"
        }
      ],
      "stateMutability": "view",
      "type": "function"
    },
    {
      "inputs": [],
      "name": "totalMinted",
      "outputs": [
        {
          "internalType": "uint256",
          "name": "",
          "type": "uint256"
        }
      ],
      "stateMutability": "view",
      "type": "function"
    },
    {
      "inputs": [],
      "name": "totalSupply",
      "outputs": [
        {
          "internalType": "uint256",
          "name": "",
          "type": "uint256"
        }
      ],
      "stateMutability": "view",
      "type": "function"
    },
    {
      "inputs": [
        {
          "internalType": "address",
          "name": "from",
          "type": "address"
        },
        {
          "internalType": "address",
          "name": "to",
          "type": "address"
        },
        {
          "internalType": "uint256",
          "name": "tokenId",
          "type": "uint256"
        }
      ],
      "name": "transferFrom",
      "outputs": [],
      "stateMutability": "nonpayable",
      "type": "function"
    },
    {
      "inputs": [
        {
          "internalType": "address",
          "name": "newOwner",
          "type": "address"
        }
      ],
      "name": "transferOwnership",
      "outputs": [],
      "stateMutability": "nonpayable",
      "type": "function"
    },
    {
      "inputs": [],
      "name": "version",
      "outputs": [
        {
          "internalType": "string",
          "name": "",
          "type": "string"
        }
      ],
      "stateMutability": "pure",
      "type": "function"
    }
  ],
  "bytecode": "0x608060405234801561001057600080fd5b50612c91806100206000396000f3fe6080604052600436106101c25760003560e01c806370a08231116100f7578063a22cb46511610095578063c87b56dd11610064578063c87b56dd14610568578063dc33e68114610588578063e985e9c5146105a8578063f2fde38b1461061057600080fd5b8063a22cb465146104f3578063a2309ff814610513578063b88d4fde14610528578063c23dc68f1461054857600080fd5b80638da5cb5b116100d15780638da5cb5b146104735780639231ab2a1461049157806395d89b41146104be57806399a2557a146104d357600080fd5b806370a0823114610411578063715018a6146104315780638462151c1461044657600080fd5b806342842e0e1161016457806354fd4d501161013e57806354fd4d501461035e57806355f804b3146103a45780635bbb2177146103c45780636352211e146103f157600080fd5b806342842e0e146102fe57806342966c681461031e5780634cd88b761461033e57600080fd5b8063095ea7b3116101a0578063095ea7b31461025657806318160ddd1461027857806323b872dd146102cb5780632d688ca8146102eb57600080fd5b806301ffc9a7146101c757806306fdde03146101fc578063081812fc1461021e575b600080fd5b3480156101d357600080fd5b506101e76101e2366004612410565b610630565b60405190151581526020015b60405180910390f35b34801561020857600080fd5b506102116106cd565b6040516101f39190612485565b34801561022a57600080fd5b5061023e610239366004612498565b61076f565b6040516001600160a01b0390911681526020016101f3565b34801561026257600080fd5b506102766102713660046124c8565b6107eb565b005b34801561028457600080fd5b507f2569078dfb4b0305704d3008e7403993ae9601b85f7ae5e742de3de8f8011c4154600080516020612c3c8339815191525403600019015b6040519081526020016101f3565b3480156102d757600080fd5b506102766102e63660046124f2565b61090c565b6102766102f93660046124c8565b610bc6565b34801561030a57600080fd5b506102766103193660046124f2565b610c33565b34801561032a57600080fd5b50610276610339366004612498565b610c53565b34801561034a57600080fd5b506102766103593660046125ed565b610c61565b34801561036a57600080fd5b5060408051808201909152600581527f312e302e300000000000000000000000000000000000000000000000000000006020820152610211565b3480156103b057600080fd5b506102766103bf366004612651565b610e52565b3480156103d057600080fd5b506103e46103df3660046126c3565b610eb9565b6040516101f39190612769565b3480156103fd57600080fd5b5061023e61040c366004612498565b610f87565b34801561041d57600080fd5b506102bd61042c3660046127e6565b610f92565b34801561043d57600080fd5b50610276611019565b34801561045257600080fd5b506104666104613660046127e6565b61107f565b6040516101f39190612801565b34801561047f57600080fd5b506033546001600160a01b031661023e565b34801561049d57600080fd5b506104b16104ac366004612498565b611183565b6040516101f39190612839565b3480156104ca57600080fd5b506102116111b0565b3480156104df57600080fd5b506104666104ee36600461287e565b6111cf565b3480156104ff57600080fd5b5061027661050e3660046128b1565b61137d565b34801561051f57600080fd5b506102bd61144a565b34801561053457600080fd5b506102766105433660046128ed565b61146b565b34801561055457600080fd5b506104b1610563366004612498565b6114b5565b34801561057457600080fd5b50610211610583366004612498565b61154a565b34801561059457600080fd5b506102bd6105a33660046127e6565b6115e6565b3480156105b457600080fd5b506101e76105c3366004612969565b6001600160a01b0391821660009081527f2569078dfb4b0305704d3008e7403993ae9601b85f7ae5e742de3de8f8011c476020908152604080832093909416825291909152205460ff1690565b34801561061c57600080fd5b5061027661062b3660046127e6565b611630565b60007f01ffc9a7000000000000000000000000000000000000000000000000000000006001600160e01b03198316148061069357507f80ac58cd000000000000000000000000000000000000000000000000000000006001600160e01b03198316145b806106c757507f5b5e139f000000000000000000000000000000000000000000000000000000006001600160e01b03198316145b92915050565b6060600080516020612c3c83398151915260020180546106ec9061299c565b80601f01602080910402602001604051908101604052809291908181526020018280546107189061299c565b80156107655780601f1061073a57610100808354040283529160200191610765565b820191906000526020600020905b81548152906001019060200180831161074857829003601f168201915b5050505050905090565b600061077a8261170f565b6107b0576040517fcf4700e400000000000000000000000000000000000000000000000000000000815260040160405180910390fd5b5060009081527f2569078dfb4b0305704d3008e7403993ae9601b85f7ae5e742de3de8f8011c4660205260409020546001600160a01b031690565b60006107f682610f87565b9050336001600160a01b03821614610884576001600160a01b03811660009081527f2569078dfb4b0305704d3008e7403993ae9601b85f7ae5e742de3de8f8011c476020908152604080832033845290915290205460ff16610884576040517fcfb3b94200000000000000000000000000000000000000000000000000000000815260040160405180910390fd5b60008281527f2569078dfb4b0305704d3008e7403993ae9601b85f7ae5e742de3de8f8011c466020526040808220805473ffffffffffffffffffffffffffffffffffffffff19166001600160a01b0387811691821790925591518593918516917f8c5be1e5ebec7d5bd14f71427d1e84f3dd0314c0f7b2291e5b200ac8c7c3b92591a4505050565b600061091782611770565b9050836001600160a01b0316816001600160a01b031614610964576040517fa114810000000000000000000000000000000000000000000000000000000000815260040160405180910390fd5b60008281527f2569078dfb4b0305704d3008e7403993ae9601b85f7ae5e742de3de8f8011c466020526040902080546109af8187335b6001600160a01b039081169116811491141790565b610a16576001600160a01b03861660009081527f2569078dfb4b0305704d3008e7403993ae9601b85f7ae5e742de3de8f8011c476020908152604080832033845290915290205460ff16610a1657604051632ce44b5f60e11b815260040160405180910390fd5b6001600160a01b038516610a56576040517fea553b3400000000000000000000000000000000000000000000000000000000815260040160405180910390fd5b8015610a6157600082555b6001600160a01b0386811660009081527f2569078dfb4b0305704d3008e7403993ae9601b85f7ae5e742de3de8f8011c4560205260408082208054600019019055918716808252919020805460010190554260a01b17600160e11b1760008581527f2569078dfb4b0305704d3008e7403993ae9601b85f7ae5e742de3de8f8011c446020526040812091909155600160e11b84169003610b7c576001840160008181527f2569078dfb4b0305704d3008e7403993ae9601b85f7ae5e742de3de8f8011c4460205260408120549003610b7a57600080516020612c3c833981519152548114610b7a5760008181527f2569078dfb4b0305704d3008e7403993ae9601b85f7ae5e742de3de8f8011c44602052604090208490555b505b83856001600160a01b0316876001600160a01b03167fddf252ad1be2c89b69c2b068fc378daa952ba7f163c4a11628f55a4df523b3ef60405160405180910390a45b505050505050565b6033546001600160a01b03163314610c255760405162461bcd60e51b815260206004820181905260248201527f4f776e61626c653a2063616c6c6572206973206e6f7420746865206f776e657260448201526064015b60405180910390fd5b610c2f8282611843565b5050565b610c4e8383836040518060200160405280600081525061146b565b505050565b610c5e8160016119ae565b50565b7fee151c8401928dc223602bb187aff91b9a56c7cae5476ef1b3287b085a16c85f54610100900460ff16610cba577fee151c8401928dc223602bb187aff91b9a56c7cae5476ef1b3287b085a16c85f5460ff1615610cbe565b303b155b610d305760405162461bcd60e51b815260206004820152603760248201527f455243373231415f5f496e697469616c697a61626c653a20636f6e747261637460448201527f20697320616c726561647920696e697469616c697a65640000000000000000006064820152608401610c1c565b7fee151c8401928dc223602bb187aff91b9a56c7cae5476ef1b3287b085a16c85f54610100900460ff16158015610d90577fee151c8401928dc223602bb187aff91b9a56c7cae5476ef1b3287b085a16c85f805461ffff19166101011790555b6000610d9c6001611c15565b90508015610db4576000805461ff0019166101001790555b610dbe8484611d4e565b610dc6611df4565b610dce611df4565b610dd6611e98565b8015610e1c576000805461ff0019169055604051600181527f7f26b83ff96e1f2b6a682f133852f6798a09c465da95921460cefb38474024989060200160405180910390a15b508015610c4e5750507fee151c8401928dc223602bb187aff91b9a56c7cae5476ef1b3287b085a16c85f805461ff001916905550565b6033546001600160a01b03163314610eac5760405162461bcd60e51b815260206004820181905260248201527f4f776e61626c653a2063616c6c6572206973206e6f7420746865206f776e65726044820152606401610c1c565b6065610c4e828483612a1c565b805160609060008167ffffffffffffffff811115610ed957610ed961252e565b604051908082528060200260200182016040528015610f2b57816020015b604080516080810182526000808252602080830182905292820181905260608201528252600019909201910181610ef75790505b50905060005b828114610f7f57610f5a858281518110610f4d57610f4d612add565b60200260200101516114b5565b828281518110610f6c57610f6c612add565b6020908102919091010152600101610f31565b509392505050565b60006106c782611770565b60006001600160a01b038216610fd4576040517f8f4eb60400000000000000000000000000000000000000000000000000000000815260040160405180910390fd5b506001600160a01b031660009081527f2569078dfb4b0305704d3008e7403993ae9601b85f7ae5e742de3de8f8011c45602052604090205467ffffffffffffffff1690565b6033546001600160a01b031633146110735760405162461bcd60e51b815260206004820181905260248201527f4f776e61626c653a2063616c6c6572206973206e6f7420746865206f776e65726044820152606401610c1c565b61107d6000611f1d565b565b6060600080600061108f85610f92565b905060008167ffffffffffffffff8111156110ac576110ac61252e565b6040519080825280602002602001820160405280156110d5578160200160208202803683370190505b5060408051608081018252600080825260208201819052918101829052606081019190915290915060015b8386146111775761111081611f7c565b9150816040015161116f5781516001600160a01b03161561113057815194505b876001600160a01b0316856001600160a01b03160361116f578083878060010198508151811061116257611162612add565b6020026020010181815250505b600101611100565b50909695505050505050565b6040805160808101825260008082526020820181905291810182905260608101919091526106c78261200d565b6060600080516020612c3c83398151915260030180546106ec9061299c565b606081831061120a576040517f32c1995a00000000000000000000000000000000000000000000000000000000815260040160405180910390fd5b600080611223600080516020612c3c8339815191525490565b9050600185101561123357600194505b8084111561123f578093505b600061124a87610f92565b9050848610156112695785850381811015611263578091505b5061126d565b5060005b60008167ffffffffffffffff8111156112885761128861252e565b6040519080825280602002602001820160405280156112b1578160200160208202803683370190505b509050816000036112c757935061137692505050565b60006112d2886114b5565b9050600081604001516112e3575080515b885b8881141580156112f55750848714155b1561136a5761130381611f7c565b925082604001516113625782516001600160a01b03161561132357825191505b8a6001600160a01b0316826001600160a01b031603611362578084888060010199508151811061135557611355612add565b6020026020010181815250505b6001016112e5565b50505092835250909150505b9392505050565b336001600160a01b038316036113bf576040517fb06307db00000000000000000000000000000000000000000000000000000000815260040160405180910390fd5b3360008181527f2569078dfb4b0305704d3008e7403993ae9601b85f7ae5e742de3de8f8011c47602090815260408083206001600160a01b03871680855290835292819020805460ff191686151590811790915590519081529192917f17307eab39ab6107e8899845ad3d59bd9653f200f220920489ca2b5937696c31910160405180910390a35050565b6000611466600080516020612c3c833981519152546000190190565b905090565b61147684848461090c565b6001600160a01b0383163b156114af5761149284848484612085565b6114af576040516368d2bf6b60e11b815260040160405180910390fd5b50505050565b604080516080810182526000808252602082018190529181018290526060810191909152604080516080810182526000808252602082018190529181018290526060810191909152600183108061151b5750600080516020612c3c833981519152548310155b156115265792915050565b61152f83611f7c565b90508060400151156115415792915050565b6113768361200d565b60606115558261170f565b61158b576040517fa14c4b5000000000000000000000000000000000000000000000000000000000815260040160405180910390fd5b6000611595612170565b905080516000036115b55760405180602001604052806000815250611376565b806115bf8461217f565b6040516020016115d0929190612af3565b6040516020818303038152906040529392505050565b6001600160a01b03811660009081527f2569078dfb4b0305704d3008e7403993ae9601b85f7ae5e742de3de8f8011c4560205260408082205467ffffffffffffffff911c166106c7565b6033546001600160a01b0316331461168a5760405162461bcd60e51b815260206004820181905260248201527f4f776e61626c653a2063616c6c6572206973206e6f7420746865206f776e65726044820152606401610c1c565b6001600160a01b0381166117065760405162461bcd60e51b815260206004820152602660248201527f4f776e61626c653a206e6577206f776e657220697320746865207a65726f206160448201527f64647265737300000000000000000000000000000000000000000000000000006064820152608401610c1c565b610c5e81611f1d565b6000816001111580156117305750600080516020612c3c8339815191525482105b80156106c757505060009081527f2569078dfb4b0305704d3008e7403993ae9601b85f7ae5e742de3de8f8011c446020526040902054600160e01b161590565b6000818060011161181157600080516020612c3c833981519152548110156118115760008181527f2569078dfb4b0305704d3008e7403993ae9601b85f7ae5e742de3de8f8011c44602052604081205490600160e01b8216900361180f575b8060000361137657506000190160008181527f2569078dfb4b0305704d3008e7403993ae9601b85f7ae5e742de3de8f8011c4460205260409020546117cf565b505b6040517fdf2d9b4200000000000000000000000000000000000000000000000000000000815260040160405180910390fd5b600080516020612c3c833981519152546001600160a01b038316611893576040517f2e07630000000000000000000000000000000000000000000000000000000000815260040160405180910390fd5b816000036118cd576040517fb562e8dd00000000000000000000000000000000000000000000000000000000815260040160405180910390fd5b6001600160a01b03831660008181527f2569078dfb4b0305704d3008e7403993ae9601b85f7ae5e742de3de8f8011c456020526040902080546801000000000000000185020190554260a01b6001841460e11b171760008281527f2569078dfb4b0305704d3008e7403993ae9601b85f7ae5e742de3de8f8011c446020526040902055808281015b6040516001830192906001600160a01b038716906000907fddf252ad1be2c89b69c2b068fc378daa952ba7f163c4a11628f55a4df523b3ef908290a480821061195557600080516020612c3c8339815191525550505050565b60006119b983611770565b9050806000806119f68660009081527f2569078dfb4b0305704d3008e7403993ae9601b85f7ae5e742de3de8f8011c466020526040902080549091565b915091508415611a7257611a0b81843361099a565b611a72576001600160a01b03831660009081527f2569078dfb4b0305704d3008e7403993ae9601b85f7ae5e742de3de8f8011c476020908152604080832033845290915290205460ff16611a7257604051632ce44b5f60e11b815260040160405180910390fd5b8015611a7d57600082555b6001600160a01b03831660008181527f2569078dfb4b0305704d3008e7403993ae9601b85f7ae5e742de3de8f8011c456020526040902080546fffffffffffffffffffffffffffffffff0190554260a01b177c03000000000000000000000000000000000000000000000000000000001760008781527f2569078dfb4b0305704d3008e7403993ae9601b85f7ae5e742de3de8f8011c446020526040812091909155600160e11b85169003611bad576001860160008181527f2569078dfb4b0305704d3008e7403993ae9601b85f7ae5e742de3de8f8011c4460205260408120549003611bab57600080516020612c3c833981519152548114611bab5760008181527f2569078dfb4b0305704d3008e7403993ae9601b85f7ae5e742de3de8f8011c44602052604090208590555b505b60405186906000906001600160a01b038616907fddf252ad1be2c89b69c2b068fc378daa952ba7f163c4a11628f55a4df523b3ef908390a450507f2569078dfb4b0305704d3008e7403993ae9601b85f7ae5e742de3de8f8011c418054600101905550505050565b60008054610100900460ff1615611cb2578160ff166001148015611c385750303b155b611caa5760405162461bcd60e51b815260206004820152602e60248201527f496e697469616c697a61626c653a20636f6e747261637420697320616c72656160448201527f647920696e697469616c697a65640000000000000000000000000000000000006064820152608401610c1c565b506000919050565b60005460ff808416911610611d2f5760405162461bcd60e51b815260206004820152602e60248201527f496e697469616c697a61626c653a20636f6e747261637420697320616c72656160448201527f647920696e697469616c697a65640000000000000000000000000000000000006064820152608401610c1c565b506000805460ff191660ff92909216919091179055600190565b919050565b7fee151c8401928dc223602bb187aff91b9a56c7cae5476ef1b3287b085a16c85f54610100900460ff16611dea5760405162461bcd60e51b815260206004820152603460248201527f455243373231415f5f496e697469616c697a61626c653a20636f6e747261637460448201527f206973206e6f7420696e697469616c697a696e670000000000000000000000006064820152608401610c1c565b610c2f82826121ce565b7fee151c8401928dc223602bb187aff91b9a56c7cae5476ef1b3287b085a16c85f54610100900460ff16611e905760405162461bcd60e51b815260206004820152603460248201527f455243373231415f5f496e697469616c697a61626c653a20636f6e747261637460448201527f206973206e6f7420696e697469616c697a696e670000000000000000000000006064820152608401610c1c565b61107d6122d8565b600054610100900460ff16611f155760405162461bcd60e51b815260206004820152602b60248201527f496e697469616c697a61626c653a20636f6e7472616374206973206e6f74206960448201527f6e697469616c697a696e670000000000000000000000000000000000000000006064820152608401610c1c565b61107d612374565b603380546001600160a01b0383811673ffffffffffffffffffffffffffffffffffffffff19831681179093556040519116919082907f8be0079c531659141344cd1fd0a4f28419497f9722a3daafe3b4186f6b6457e090600090a35050565b6040805160808101825260008082526020820181905291810182905260608101919091526106c7600080516020612c3c83398151915260008481526004919091016020526040902054604080516080810182526001600160a01b038316815260a083901c67ffffffffffffffff166020820152600160e01b831615159181019190915260e89190911c606082015290565b6040805160808101825260008082526020820181905291810182905260608101919091526106c761203d83611770565b604080516080810182526001600160a01b038316815260a083901c67ffffffffffffffff166020820152600160e01b831615159181019190915260e89190911c606082015290565b604051630a85bd0160e11b81526000906001600160a01b0385169063150b7a02906120ba903390899088908890600401612b22565b6020604051808303816000875af19250505080156120f5575060408051601f3d908101601f191682019092526120f291810190612b5e565b60015b612153573d808015612123576040519150601f19603f3d011682016040523d82523d6000602084013e612128565b606091505b50805160000361214b576040516368d2bf6b60e11b815260040160405180910390fd5b805181602001fd5b6001600160e01b031916630a85bd0160e11b149050949350505050565b6060606580546106ec9061299c565b604080516080810191829052607f0190826030600a8206018353600a90045b80156121bc57600183039250600a81066030018353600a900461219e565b50819003601f19909101908152919050565b7fee151c8401928dc223602bb187aff91b9a56c7cae5476ef1b3287b085a16c85f54610100900460ff1661226a5760405162461bcd60e51b815260206004820152603460248201527f455243373231415f5f496e697469616c697a61626c653a20636f6e747261637460448201527f206973206e6f7420696e697469616c697a696e670000000000000000000000006064820152608401610c1c565b7f2569078dfb4b0305704d3008e7403993ae9601b85f7ae5e742de3de8f8011c426122958382612b7b565b507f2569078dfb4b0305704d3008e7403993ae9601b85f7ae5e742de3de8f8011c436122c18282612b7b565b506001600080516020612c3c833981519152555050565b7fee151c8401928dc223602bb187aff91b9a56c7cae5476ef1b3287b085a16c85f54610100900460ff1661107d5760405162461bcd60e51b815260206004820152603460248201527f455243373231415f5f496e697469616c697a61626c653a20636f6e747261637460448201527f206973206e6f7420696e697469616c697a696e670000000000000000000000006064820152608401610c1c565b600054610100900460ff166123f15760405162461bcd60e51b815260206004820152602b60248201527f496e697469616c697a61626c653a20636f6e7472616374206973206e6f74206960448201527f6e697469616c697a696e670000000000000000000000000000000000000000006064820152608401610c1c565b61107d33611f1d565b6001600160e01b031981168114610c5e57600080fd5b60006020828403121561242257600080fd5b8135611376816123fa565b60005b83811015612448578181015183820152602001612430565b838111156114af5750506000910152565b6000815180845261247181602086016020860161242d565b601f01601f19169290920160200192915050565b6020815260006113766020830184612459565b6000602082840312156124aa57600080fd5b5035919050565b80356001600160a01b0381168114611d4957600080fd5b600080604083850312156124db57600080fd5b6124e4836124b1565b946020939093013593505050565b60008060006060848603121561250757600080fd5b612510846124b1565b925061251e602085016124b1565b9150604084013590509250925092565b634e487b7160e01b600052604160045260246000fd5b604051601f8201601f1916810167ffffffffffffffff8111828210171561256d5761256d61252e565b604052919050565b600067ffffffffffffffff83111561258f5761258f61252e565b6125a2601f8401601f1916602001612544565b90508281528383830111156125b657600080fd5b828260208301376000602084830101529392505050565b600082601f8301126125de57600080fd5b61137683833560208501612575565b6000806040838503121561260057600080fd5b823567ffffffffffffffff8082111561261857600080fd5b612624868387016125cd565b9350602085013591508082111561263a57600080fd5b50612647858286016125cd565b9150509250929050565b6000806020838503121561266457600080fd5b823567ffffffffffffffff8082111561267c57600080fd5b818501915085601f83011261269057600080fd5b81358181111561269f57600080fd5b8660208285010111156126b157600080fd5b60209290920196919550909350505050565b600060208083850312156126d657600080fd5b823567ffffffffffffffff808211156126ee57600080fd5b818501915085601f83011261270257600080fd5b8135818111156127145761271461252e565b8060051b9150612725848301612544565b818152918301840191848101908884111561273f57600080fd5b938501935b8385101561275d57843582529385019390850190612744565b98975050505050505050565b6020808252825182820181905260009190848201906040850190845b81811015611177576127d38385516001600160a01b03815116825267ffffffffffffffff602082015116602083015260408101511515604083015262ffffff60608201511660608301525050565b9284019260809290920191600101612785565b6000602082840312156127f857600080fd5b611376826124b1565b6020808252825182820181905260009190848201906040850190845b818110156111775783518352928401929184019160010161281d565b81516001600160a01b0316815260208083015167ffffffffffffffff169082015260408083015115159082015260608083015162ffffff1690820152608081016106c7565b60008060006060848603121561289357600080fd5b61289c846124b1565b95602085013595506040909401359392505050565b600080604083850312156128c457600080fd5b6128cd836124b1565b9150602083013580151581146128e257600080fd5b809150509250929050565b6000806000806080858703121561290357600080fd5b61290c856124b1565b935061291a602086016124b1565b925060408501359150606085013567ffffffffffffffff81111561293d57600080fd5b8501601f8101871361294e57600080fd5b61295d87823560208401612575565b91505092959194509250565b6000806040838503121561297c57600080fd5b612985836124b1565b9150612993602084016124b1565b90509250929050565b600181811c908216806129b057607f821691505b6020821081036129d057634e487b7160e01b600052602260045260246000fd5b50919050565b601f821115610c4e57600081815260208120601f850160051c810160208610156129fd5750805b601f850160051c820191505b81811015610bbe57828155600101612a09565b67ffffffffffffffff831115612a3457612a3461252e565b612a4883612a42835461299c565b836129d6565b6000601f841160018114612a7c5760008515612a645750838201355b600019600387901b1c1916600186901b178355612ad6565b600083815260209020601f19861690835b82811015612aad5786850135825560209485019460019092019101612a8d565b5086821015612aca5760001960f88860031b161c19848701351681555b505060018560011b0183555b5050505050565b634e487b7160e01b600052603260045260246000fd5b60008351612b0581846020880161242d565b835190830190612b1981836020880161242d565b01949350505050565b60006001600160a01b03808716835280861660208401525083604083015260806060830152612b546080830184612459565b9695505050505050565b600060208284031215612b7057600080fd5b8151611376816123fa565b815167ffffffffffffffff811115612b9557612b9561252e565b612ba981612ba3845461299c565b846129d6565b602080601f831160018114612bde5760008415612bc65750858301515b600019600386901b1c1916600185901b178555610bbe565b600085815260208120601f198616915b82811015612c0d57888601518255948401946001909101908401612bee565b5085821015612c2b5787850151600019600388901b60f8161c191681555b5050505050600190811b0190555056fe2569078dfb4b0305704d3008e7403993ae9601b85f7ae5e742de3de8f8011c40a264697066735822122037410537f3a9529bdf4647d9dab1d3aa398a8ea75f58303c36c5fd614a0ce5cf64736f6c634300080f0033",
  "linkReferences": {},
  "deployedLinkReferences": {}
}