{
  "_format": "hh-sol-artifact-1",
  "contractName": "SpaceStaking",
  "sourceName": "contracts/SpaceStaking.sol",
  "abi": [
    {
      "anonymous": false,
      "inputs": [
        {
          "indexed": true,
          "internalType": "address",
          "name": "staker",
          "type": "address"
        },
        {
          "indexed": false,
          "internalType": "uint256",
          "name": "amount",
          "type": "uint256"
        }
      ],
      "name": "Claim",
      "type": "event"
    },
    {
      "anonymous": false,
      "inputs": [
        {
          "indexed": false,
          "internalType": "uint8",
          "name": "version",
          "type": "uint8"
        }
      ],
      "name": "Initialized",
      "type": "event"
    },
    {
      "anonymous": false,
      "inputs": [
        {
          "indexed": true,
          "internalType": "address",
          "name": "previousOwner",
          "type": "address"
        },
        {
          "indexed": true,
          "internalType": "address",
          "name": "newOwner",
          "type": "address"
        }
      ],
      "name": "OwnershipTransferred",
      "type": "event"
    },
    {
      "anonymous": false,
      "inputs": [
        {
          "indexed": true,
          "internalType": "bytes32",
          "name": "role",
          "type": "bytes32"
        },
        {
          "indexed": true,
          "internalType": "bytes32",
          "name": "previousAdminRole",
          "type": "bytes32"
        },
        {
          "indexed": true,
          "internalType": "bytes32",
          "name": "newAdminRole",
          "type": "bytes32"
        }
      ],
      "name": "RoleAdminChanged",
      "type": "event"
    },
    {
      "anonymous": false,
      "inputs": [
        {
          "indexed": true,
          "internalType": "bytes32",
          "name": "role",
          "type": "bytes32"
        },
        {
          "indexed": true,
          "internalType": "address",
          "name": "account",
          "type": "address"
        },
        {
          "indexed": true,
          "internalType": "address",
          "name": "sender",
          "type": "address"
        }
      ],
      "name": "RoleGranted",
      "type": "event"
    },
    {
      "anonymous": false,
      "inputs": [
        {
          "indexed": true,
          "internalType": "bytes32",
          "name": "role",
          "type": "bytes32"
        },
        {
          "indexed": true,
          "internalType": "address",
          "name": "account",
          "type": "address"
        },
        {
          "indexed": true,
          "internalType": "address",
          "name": "sender",
          "type": "address"
        }
      ],
      "name": "RoleRevoked",
      "type": "event"
    },
    {
      "anonymous": false,
      "inputs": [
        {
          "indexed": true,
          "internalType": "address",
          "name": "staker",
          "type": "address"
        },
        {
          "indexed": false,
          "internalType": "uint256[]",
          "name": "tokensIds",
          "type": "uint256[]"
        }
      ],
      "name": "Stake",
      "type": "event"
    },
    {
      "anonymous": false,
      "inputs": [
        {
          "indexed": true,
          "internalType": "address",
          "name": "staker",
          "type": "address"
        },
        {
          "indexed": false,
          "internalType": "uint256[]",
          "name": "tokensIds",
          "type": "uint256[]"
        }
      ],
      "name": "Unstake",
      "type": "event"
    },
    {
      "inputs": [],
      "name": "DEFAULT_ADMIN_ROLE",
      "outputs": [
        {
          "internalType": "bytes32",
          "name": "",
          "type": "bytes32"
        }
      ],
      "stateMutability": "view",
      "type": "function"
    },
    {
      "inputs": [
        {
          "internalType": "uint256[]",
          "name": "signedTokenIds",
          "type": "uint256[]"
        },
        {
          "internalType": "uint256",
          "name": "nonce",
          "type": "uint256"
        },
        {
          "internalType": "bytes",
          "name": "signature",
          "type": "bytes"
        }
      ],
      "name": "claim",
      "outputs": [],
      "stateMutability": "nonpayable",
      "type": "function"
    },
    {
      "inputs": [
        {
          "internalType": "address",
          "name": "sender",
          "type": "address"
        },
        {
          "internalType": "uint256[]",
          "name": "signedTokenIds",
          "type": "uint256[]"
        }
      ],
      "name": "claimable",
      "outputs": [
        {
          "internalType": "uint256",
          "name": "amount",
          "type": "uint256"
        },
        {
          "internalType": "uint256",
          "name": "amountPerDay",
          "type": "uint256"
        },
        {
          "internalType": "uint256",
          "name": "effectiveTime",
          "type": "uint256"
        },
        {
          "internalType": "uint32",
          "name": "pairs",
          "type": "uint32"
        },
        {
          "internalType": "uint32",
          "name": "singles",
          "type": "uint32"
        },
        {
          "components": [
            {
              "internalType": "uint256",
              "name": "tokenId",
              "type": "uint256"
            },
            {
              "internalType": "bool",
              "name": "hasPair",
              "type": "bool"
            },
            {
              "internalType": "uint256",
              "name": "perDay",
              "type": "uint256"
            }
          ],
          "internalType": "struct SpaceStaking.ClaimableItem[]",
          "name": "items",
          "type": "tuple[]"
        }
      ],
      "stateMutability": "view",
      "type": "function"
    },
    {
      "inputs": [
        {
          "internalType": "bytes32",
          "name": "role",
          "type": "bytes32"
        }
      ],
      "name": "getRoleAdmin",
      "outputs": [
        {
          "internalType": "bytes32",
          "name": "",
          "type": "bytes32"
        }
      ],
      "stateMutability": "view",
      "type": "function"
    },
    {
      "inputs": [
        {
          "internalType": "bytes32",
          "name": "role",
          "type": "bytes32"
        },
        {
          "internalType": "uint256",
          "name": "index",
          "type": "uint256"
        }
      ],
      "name": "getRoleMember",
      "outputs": [
        {
          "internalType": "address",
          "name": "",
          "type": "address"
        }
      ],
      "stateMutability": "view",
      "type": "function"
    },
    {
      "inputs": [
        {
          "internalType": "bytes32",
          "name": "role",
          "type": "bytes32"
        }
      ],
      "name": "getRoleMemberCount",
      "outputs": [
        {
          "internalType": "uint256",
          "name": "",
          "type": "uint256"
        }
      ],
      "stateMutability": "view",
      "type": "function"
    },
    {
      "inputs": [
        {
          "internalType": "bytes32",
          "name": "role",
          "type": "bytes32"
        },
        {
          "internalType": "address",
          "name": "account",
          "type": "address"
        }
      ],
      "name": "grantRole",
      "outputs": [],
      "stateMutability": "nonpayable",
      "type": "function"
    },
    {
      "inputs": [
        {
          "internalType": "bytes32",
          "name": "role",
          "type": "bytes32"
        },
        {
          "internalType": "address",
          "name": "account",
          "type": "address"
        }
      ],
      "name": "hasRole",
      "outputs": [
        {
          "internalType": "bool",
          "name": "",
          "type": "bool"
        }
      ],
      "stateMutability": "view",
      "type": "function"
    },
    {
      "inputs": [],
      "name": "initialize",
      "outputs": [],
      "stateMutability": "nonpayable",
      "type": "function"
    },
    {
      "inputs": [],
      "name": "nftContract",
      "outputs": [
        {
          "internalType": "contract IERC721",
          "name": "",
          "type": "address"
        }
      ],
      "stateMutability": "view",
      "type": "function"
    },
    {
      "inputs": [
        {
          "internalType": "address",
          "name": "",
          "type": "address"
        },
        {
          "internalType": "address",
          "name": "from",
          "type": "address"
        },
        {
          "internalType": "uint256",
          "name": "",
          "type": "uint256"
        },
        {
          "internalType": "bytes",
          "name": "",
          "type": "bytes"
        }
      ],
      "name": "onERC721Received",
      "outputs": [
        {
          "internalType": "bytes4",
          "name": "",
          "type": "bytes4"
        }
      ],
      "stateMutability": "pure",
      "type": "function"
    },
    {
      "inputs": [],
      "name": "owner",
      "outputs": [
        {
          "internalType": "address",
          "name": "",
          "type": "address"
        }
      ],
      "stateMutability": "view",
      "type": "function"
    },
    {
      "inputs": [],
      "name": "renounceOwnership",
      "outputs": [],
      "stateMutability": "nonpayable",
      "type": "function"
    },
    {
      "inputs": [
        {
          "internalType": "bytes32",
          "name": "role",
          "type": "bytes32"
        },
        {
          "internalType": "address",
          "name": "account",
          "type": "address"
        }
      ],
      "name": "renounceRole",
      "outputs": [],
      "stateMutability": "nonpayable",
      "type": "function"
    },
    {
      "inputs": [
        {
          "internalType": "address",
          "name": "owner",
          "type": "address"
        },
        {
          "internalType": "uint256",
          "name": "offset",
          "type": "uint256"
        },
        {
          "internalType": "uint256",
          "name": "limit",
          "type": "uint256"
        }
      ],
      "name": "retrieve",
      "outputs": [
        {
          "internalType": "uint256[]",
          "name": "items",
          "type": "uint256[]"
        },
        {
          "internalType": "uint256",
          "name": "left",
          "type": "uint256"
        }
      ],
      "stateMutability": "view",
      "type": "function"
    },
    {
      "inputs": [
        {
          "internalType": "bytes32",
          "name": "role",
          "type": "bytes32"
        },
        {
          "internalType": "address",
          "name": "account",
          "type": "address"
        }
      ],
      "name": "revokeRole",
      "outputs": [],
      "stateMutability": "nonpayable",
      "type": "function"
    },
    {
      "inputs": [],
      "name": "rewardPerDay",
      "outputs": [
        {
          "internalType": "uint256",
          "name": "",
          "type": "uint256"
        }
      ],
      "stateMutability": "view",
      "type": "function"
    },
    {
      "inputs": [],
      "name": "rewardPerSecond",
      "outputs": [
        {
          "internalType": "uint256",
          "name": "",
          "type": "uint256"
        }
      ],
      "stateMutability": "view",
      "type": "function"
    },
    {
      "inputs": [],
      "name": "rewardStartTime",
      "outputs": [
        {
          "internalType": "uint256",
          "name": "",
          "type": "uint256"
        }
      ],
      "stateMutability": "view",
      "type": "function"
    },
    {
      "inputs": [],
      "name": "signerAddress",
      "outputs": [
        {
          "internalType": "address",
          "name": "",
          "type": "address"
        }
      ],
      "stateMutability": "view",
      "type": "function"
    },
    {
      "inputs": [
        {
          "internalType": "uint256[]",
          "name": "tokenIds",
          "type": "uint256[]"
        }
      ],
      "name": "stake",
      "outputs": [],
      "stateMutability": "nonpayable",
      "type": "function"
    },
    {
      "inputs": [
        {
          "internalType": "uint256",
          "name": "",
          "type": "uint256"
        }
      ],
      "name": "stakedBy",
      "outputs": [
        {
          "internalType": "address",
          "name": "",
          "type": "address"
        }
      ],
      "stateMutability": "view",
      "type": "function"
    },
    {
      "inputs": [
        {
          "internalType": "address",
          "name": "",
          "type": "address"
        }
      ],
      "name": "stakedEffectiveTime",
      "outputs": [
        {
          "internalType": "uint256",
          "name": "",
          "type": "uint256"
        }
      ],
      "stateMutability": "view",
      "type": "function"
    },
    {
      "inputs": [
        {
          "internalType": "address",
          "name": "",
          "type": "address"
        }
      ],
      "name": "stakedNftsCount",
      "outputs": [
        {
          "internalType": "uint32",
          "name": "",
          "type": "uint32"
        }
      ],
      "stateMutability": "view",
      "type": "function"
    },
    {
      "inputs": [
        {
          "internalType": "address",
          "name": "",
          "type": "address"
        },
        {
          "internalType": "uint256",
          "name": "",
          "type": "uint256"
        }
      ],
      "name": "stakedNftsEntries",
      "outputs": [
        {
          "internalType": "uint256",
          "name": "",
          "type": "uint256"
        }
      ],
      "stateMutability": "view",
      "type": "function"
    },
    {
      "inputs": [
        {
          "internalType": "address",
          "name": "nft_",
          "type": "address"
        }
      ],
      "name": "sudoUpdateNFT",
      "outputs": [],
      "stateMutability": "nonpayable",
      "type": "function"
    },
    {
      "inputs": [
        {
          "internalType": "address",
          "name": "signer_",
          "type": "address"
        }
      ],
      "name": "sudoUpdateSigner",
      "outputs": [],
      "stateMutability": "nonpayable",
      "type": "function"
    },
    {
      "inputs": [
        {
          "internalType": "address",
          "name": "token_",
          "type": "address"
        }
      ],
      "name": "sudoUpdateToken",
      "outputs": [],
      "stateMutability": "nonpayable",
      "type": "function"
    },
    {
      "inputs": [
        {
          "internalType": "bytes4",
          "name": "interfaceId",
          "type": "bytes4"
        }
      ],
      "name": "supportsInterface",
      "outputs": [
        {
          "internalType": "bool",
          "name": "",
          "type": "bool"
        }
      ],
      "stateMutability": "view",
      "type": "function"
    },
    {
      "inputs": [],
      "name": "tokenContract",
      "outputs": [
        {
          "internalType": "contract IAntimatter",
          "name": "",
          "type": "address"
        }
      ],
      "stateMutability": "view",
      "type": "function"
    },
    {
      "inputs": [
        {
          "internalType": "address",
          "name": "newOwner",
          "type": "address"
        }
      ],
      "name": "transferOwnership",
      "outputs": [],
      "stateMutability": "nonpayable",
      "type": "function"
    },
    {
      "inputs": [
        {
          "internalType": "uint256[]",
          "name": "tokenIds",
          "type": "uint256[]"
        },
        {
          "internalType": "uint256[]",
          "name": "signedTokenIds",
          "type": "uint256[]"
        },
        {
          "internalType": "uint256",
          "name": "nonce",
          "type": "uint256"
        },
        {
          "internalType": "bytes",
          "name": "signature",
          "type": "bytes"
        }
      ],
      "name": "unstake",
      "outputs": [],
      "stateMutability": "nonpayable",
      "type": "function"
    },
    {
      "inputs": [],
      "name": "version",
      "outputs": [
        {
          "internalType": "string",
          "name": "",
          "type": "string"
        }
      ],
      "stateMutability": "pure",
      "type": "function"
    }
  ],
  "bytecode": "0x608060405234801561001057600080fd5b5061371b806100206000396000f3fe608060405234801561001057600080fd5b506004361061020b5760003560e01c80638129fc1c1161012a578063a217fddf116100bd578063d547741f1161008c578063e621879711610071578063e621879714610533578063f2fde38b14610546578063fd4900711461055957600080fd5b8063d547741f1461050c578063d56d229d1461051f57600080fd5b8063a217fddf146104d4578063af8f42b8146104dc578063c7f08649146104e6578063ca15c873146104f957600080fd5b8063908ec7cb116100f9578063908ec7cb1461044b57806391d148541461045e5780639ee4af10146104975780639f47a27a146104c157600080fd5b80638129fc1c146104175780638da5cb5b1461041f5780638f10369a146104305780639010d07c1461043857600080fd5b806333611d4c116101a257806356dfffe01161017157806356dfffe0146103c75780635b7633d0146103e85780636d7d07f3146103fc578063715018a61461040f57600080fd5b806333611d4c1461032857806336568abe1461034957806354fd4d501461035c57806355a373d61461039b57600080fd5b806322d95eac116101de57806322d95eac146102b5578063248a9ca3146102da5780632cc138be1461030b5780632f2ff15d1461031557600080fd5b806301ffc9a714610210578063099e7a0c146102385780630fbf0a9314610274578063150b7a0214610289575b600080fd5b61022361021e366004612de0565b61056c565b60405190151581526020015b60405180910390f35b61025f610246366004612e21565b61012d6020526000908152604090205463ffffffff1681565b60405163ffffffff909116815260200161022f565b610287610282366004612f03565b6105b0565b005b61029c610297366004612f38565b6109d7565b6040516001600160e01b0319909116815260200161022f565b6102c86102c3366004612fd3565b610a5a565b60405161022f96959493929190613021565b6102fd6102e83660046130ac565b600090815260c9602052604090206001015490565b60405190815260200161022f565b6102fd6101325481565b6102876103233660046130c5565b610d70565b6102fd610336366004612e21565b61012e6020526000908152604090205481565b6102876103573660046130c5565b610d9a565b604080518082018252600581527f312e302e330000000000000000000000000000000000000000000000000000006020820152905161022f9190613121565b610135546103af906001600160a01b031681565b6040516001600160a01b03909116815260200161022f565b6103da6103d5366004613154565b610e26565b60405161022f9291906131c2565b610133546103af906001600160a01b031681565b61028761040a366004613254565b610fa8565b610287611261565b6102876112c7565b6065546001600160a01b03166103af565b6102fd611375565b6103af6104463660046132e6565b61138e565b610287610459366004612e21565b6113ad565b61022361046c3660046130c5565b600091825260c9602090815260408084206001600160a01b0393909316845291905290205460ff1690565b6103af6104a53660046130ac565b610130602052600090815260409020546001600160a01b031681565b6102876104cf366004612e21565b61142d565b6102fd600081565b6102fd6101315481565b6102876104f4366004613308565b611556565b6102fd6105073660046130ac565b6115c2565b61028761051a3660046130c5565b6115d9565b610134546103af906001600160a01b031681565b6102fd610541366004613375565b6115fe565b610287610554366004612e21565b611630565b610287610567366004612e21565b61170f565b60006001600160e01b031982167f5a05180f0000000000000000000000000000000000000000000000000000000014806105aa57506105aa8261178f565b92915050565b6101345433906001600160a01b0316158015906105d85750610135546001600160a01b031615155b6106295760405162461bcd60e51b815260206004820152600960248201527f4552525f5345545550000000000000000000000000000000000000000000000060448201526064015b60405180910390fd5b610134546040517fe985e9c50000000000000000000000000000000000000000000000000000000081526001600160a01b0383811660048301523060248301529091169063e985e9c590604401602060405180830381865afa158015610693573d6000803e3d6000fd5b505050506040513d601f19601f820116820180604052508101906106b7919061339f565b6107035760405162461bcd60e51b815260206004820152600b60248201527f4552525f415050524f56450000000000000000000000000000000000000000006044820152606401610620565b815163ffffffff81166107585760405162461bcd60e51b815260206004820152600960248201527f4552525f454d50545900000000000000000000000000000000000000000000006044820152606401610620565b6001600160a01b038216600090815261012d602052604081205463ffffffff16905b8263ffffffff168163ffffffff16101561089c576000858263ffffffff16815181106107a8576107a86133c1565b602090810291909101015161013454604051632142170760e11b81526001600160a01b038881166004830152306024830152604482018490529293509116906342842e0e90606401600060405180830381600087803b15801561080a57600080fd5b505af115801561081e573d6000803e3d6000fd5b5050505060018361082f91906133ed565b6001600160a01b038616600081815261012f60209081526040808320805460018101825590845282842001869055948252610130905292909220805473ffffffffffffffffffffffffffffffffffffffff191690921790915591508061089481613415565b91505061077a565b506001600160a01b038316600090815261012e602052604081205490036108de576001600160a01b038316600090815261012e6020526040902042905561096d565b6001600160a01b038316600090815261012e60205260408120546109029042613438565b6001600160a01b038516600090815261012d602052604090205490915063ffffffff8084169161093391168361344f565b61093d9190613484565b6001600160a01b038516600090815261012e602052604081208054909190610966908490613498565b9091555050505b6001600160a01b038316600081815261012d602052604090819020805463ffffffff191663ffffffff8516179055517fbd6539044374e650773e9c709c54c777fc38f8ff96c2619e7012817e0f987cfa906109c99087906134b0565b60405180910390a250505050565b60006001600160a01b038516610a2f5760405162461bcd60e51b815260206004820152600f60248201527f4552525f4449524543545f4d494e5400000000000000000000000000000000006044820152606401610620565b507f150b7a020000000000000000000000000000000000000000000000000000000095945050505050565b6101355460009081908190819081906060906001600160a01b0316610ac15760405162461bcd60e51b815260206004820152600960248201527f4552525f534554555000000000000000000000000000000000000000000000006044820152606401610620565b610135546040516370a0823160e01b81523060048201526000916001600160a01b0316906370a0823190602401602060405180830381865afa158015610b0b573d6000803e3d6000fd5b505050506040513d601f19601f82011682018060405250810190610b2f91906134c3565b6001600160a01b038a16600090815261012e602052604081205491925090610b579042613438565b895190915060005b8163ffffffff168163ffffffff161015610be05760008b8263ffffffff1681518110610b8d57610b8d6133c1565b60209081029190910181015160008181526101309092526040909120549091506001600160a01b03808f16911603610bcd57610bca6001896133ed565b97505b5080610bd881613415565b915050610b5f565b506001600160a01b038b16600090815261012d6020526040902054610c0c90879063ffffffff166134dc565b94506000610c18611375565b610c289063ffffffff891661344f565b905060006002610c36611375565b610c469063ffffffff8a1661344f565b610c509190613484565b9050610c5c8183613498565b610c69906201518061344f565b995083610c768284613498565b610c80919061344f565b9a508a851015610d5157610c966127108c613484565b610ca09083613484565b63ffffffff16610cb261271087613484565b610cbc919061344f565b610cc86127108d613484565b610cd29083613484565b63ffffffff16610ce461271088613484565b610cee919061344f565b610cf89190613498565b9a50610d066127108c613484565b610d109086613484565b610d1c61271086613484565b610d26919061344f565b6001600160a01b038e16600090815261012e6020526040902054610d4a9190613498565b9850610d55565b4298505b610d5f8d8d6117f6565b955050505050509295509295509295565b600082815260c96020526040902060010154610d8b81611a16565b610d958383611a20565b505050565b6001600160a01b0381163314610e185760405162461bcd60e51b815260206004820152602f60248201527f416363657373436f6e74726f6c3a2063616e206f6e6c792072656e6f756e636560448201527f20726f6c657320666f722073656c6600000000000000000000000000000000006064820152608401610620565b610e228282611a42565b5050565b6001600160a01b038316600090815261012f602052604081205460609190610e4e8486613498565b1115610e7c576001600160a01b038516600090815261012f6020526040902054610e79908590613438565b92505b8267ffffffffffffffff811115610e9557610e95612e3c565b604051908082528060200260200182016040528015610ebe578160200160208202803683370190505b50915060005b83811015610f39576001600160a01b038616600090815261012f60205260409020610eef8287613498565b81548110610eff57610eff6133c1565b9060005260206000200154838281518110610f1c57610f1c6133c1565b602090810291909101015280610f3181613501565b915050610ec4565b50610f448385613498565b6001600160a01b038616600090815261012f60205260409020541115610f9c576001600160a01b038516600090815261012f60205260409020548390610f8b908690613438565b610f959190613438565b9050610fa0565b5060005b935093915050565b600260015403610ffa5760405162461bcd60e51b815260206004820152601f60248201527f5265656e7472616e637947756172643a207265656e7472616e742063616c6c006044820152606401610620565b60026001558351339063ffffffff81166110565760405162461bcd60e51b815260206004820152600960248201527f4552525f454d50545900000000000000000000000000000000000000000000006044820152606401610620565b6001600160a01b038216600090815261012d602052604090205463ffffffff808316911610156110c85760405162461bcd60e51b815260206004820152600c60248201527f4552525f544f4f5f4d55434800000000000000000000000000000000000000006044820152606401610620565b6110d482868686611a64565b60005b8163ffffffff168163ffffffff161015611213576000878263ffffffff1681518110611105576111056133c1565b602090810291909101015161013454604051632142170760e11b81523060048201526001600160a01b038781166024830152604482018490529293509116906342842e0e90606401600060405180830381600087803b15801561116757600080fd5b505af115801561117b573d6000803e3d6000fd5b505050506001600160a01b038416600090815261012d602052604081208054600192906111af90849063ffffffff166134dc565b92506101000a81548163ffffffff021916908363ffffffff1602179055506111d78482611d29565b600090815261013060205260409020805473ffffffffffffffffffffffffffffffffffffffff191690558061120b81613415565b9150506110d7565b50816001600160a01b03167f8537ffc096ba30690173694a1630e9cdad3b912b48980d0127edbcfe80076b618760405161124d91906134b0565b60405180910390a250506001805550505050565b6065546001600160a01b031633146112bb5760405162461bcd60e51b815260206004820181905260248201527f4f776e61626c653a2063616c6c6572206973206e6f7420746865206f776e65726044820152606401610620565b6112c56000611e5f565b565b60006112d36001611ebe565b905080156112eb576000805461ff0019166101001790555b6112f3611ff7565b6112fb61206a565b6113036120dd565b61130e600030612148565b611319600033612148565b426101325568056bc75e2d63100000610131558015611372576000805461ff0019169055604051600181527f7f26b83ff96e1f2b6a682f133852f6798a09c465da95921460cefb38474024989060200160405180910390a15b50565b600062015180610131546113899190613484565b905090565b600082815260fb602052604081206113a69083612152565b9392505050565b60006113b881611a16565b6001600160a01b0382166113fc5760405162461bcd60e51b815260206004820152600b60248201526a4552525f4144445245535360a81b6044820152606401610620565b50610133805473ffffffffffffffffffffffffffffffffffffffff19166001600160a01b0392909216919091179055565b600061143881611a16565b6001600160a01b03821661147c5760405162461bcd60e51b815260206004820152600b60248201526a4552525f4144445245535360a81b6044820152606401610620565b610135805473ffffffffffffffffffffffffffffffffffffffff19166001600160a01b0384169081179091556040516370a0823160e01b8152306004820152600091906370a0823190602401602060405180830381865afa1580156114e5573d6000803e3d6000fd5b505050506040513d601f19601f8201168201806040525081019061150991906134c3565b11610e225760405162461bcd60e51b815260206004820152601b60248201527f73686f756c642068617320706f7369746976652062616c616e636500000000006044820152606401610620565b6002600154036115a85760405162461bcd60e51b815260206004820152601f60248201527f5265656e7472616e637947756172643a207265656e7472616e742063616c6c006044820152606401610620565b60026001556115b933848484611a64565b50506001805550565b600081815260fb602052604081206105aa9061215e565b600082815260c960205260409020600101546115f481611a16565b610d958383611a42565b61012f602052816000526040600020818154811061161b57600080fd5b90600052602060002001600091509150505481565b6065546001600160a01b0316331461168a5760405162461bcd60e51b815260206004820181905260248201527f4f776e61626c653a2063616c6c6572206973206e6f7420746865206f776e65726044820152606401610620565b6001600160a01b0381166117065760405162461bcd60e51b815260206004820152602660248201527f4f776e61626c653a206e6577206f776e657220697320746865207a65726f206160448201527f64647265737300000000000000000000000000000000000000000000000000006064820152608401610620565b61137281611e5f565b600061171a81611a16565b6001600160a01b03821661175e5760405162461bcd60e51b815260206004820152600b60248201526a4552525f4144445245535360a81b6044820152606401610620565b50610134805473ffffffffffffffffffffffffffffffffffffffff19166001600160a01b0392909216919091179055565b60006001600160e01b031982167f7965db0b0000000000000000000000000000000000000000000000000000000014806105aa57507f01ffc9a7000000000000000000000000000000000000000000000000000000006001600160e01b03198316146105aa565b6001600160a01b038216600090815261012f6020526040902080546060919063ffffffff811667ffffffffffffffff81111561183457611834612e3c565b60405190808252806020026020018201604052801561188b57816020015b611878604051806060016040528060008152602001600015158152602001600081525090565b8152602001906001900390816118525790505b50925060005b8163ffffffff168163ffffffff161015611a0d576000838263ffffffff16815481106118bf576118bf6133c1565b9060005260206000200154905080858363ffffffff16815181106118e5576118e56133c1565b602002602001015160000181815250506802b5e3af16b1880000858363ffffffff1681518110611917576119176133c1565b602002602001015160400181815250506000858363ffffffff1681518110611941576119416133c1565b60209081029190910181015191151591015260005b86518110156119f85781878281518110611972576119726133c1565b6020026020010151036119e6576001868463ffffffff1681518110611999576119996133c1565b6020026020010151602001901515908115158152505068056bc75e2d63100000868463ffffffff16815181106119d1576119d16133c1565b602002602001015160400181815250506119f8565b806119f081613501565b915050611956565b50508080611a0590613415565b915050611891565b50505092915050565b6113728133612168565b611a2a82826121e8565b600082815260fb60205260409020610d95908261228a565b611a4c828261229f565b600082815260fb60205260409020610d959082612322565b6000611a6f33612337565b8385604051602001611a839392919061351a565b60405160208183030381529060405290506000611a9f826124d2565b90506000611aad828561250d565b610133549091506001600160a01b03808316911614611b0e5760405162461bcd60e51b815260206004820152600d60248201527f4552525f57524f4e475f534947000000000000000000000000000000000000006044820152606401610620565b6001600160a01b038716600090815261012e60205260409020548511611b765760405162461bcd60e51b815260206004820152600f60248201527f4552525f57524f4e475f4e4f4e434500000000000000000000000000000000006044820152606401610620565b42611b8386610e10613498565b11611bd05760405162461bcd60e51b815260206004820152600d60248201527f4552525f4f4c445f4e4f4e4345000000000000000000000000000000000000006044820152606401610620565b600080611bdd8989610a5a565b5050506001600160a01b038c8116600081815261012e6020526040908190208490556101355490517fa9059cbb000000000000000000000000000000000000000000000000000000008152600481019290925260248201869052949650919450929092169163a9059cbb91506044016020604051808303816000875af1158015611c6b573d6000803e3d6000fd5b505050506040513d601f19601f82011682018060405250810190611c8f919061339f565b611cdb5760405162461bcd60e51b815260206004820152600e60248201527f4552525f434c41494d5f4641494c0000000000000000000000000000000000006044820152606401610620565b886001600160a01b03167f47cee97cb7acd717b3c0aa1435d004cd5b3c8c57d70dbceb4e4458bbd60e39d483604051611d1691815260200190565b60405180910390a2505050505050505050565b6001600160a01b038216600090815261012f60205260408120805490915b8163ffffffff168163ffffffff161015611e165783838263ffffffff1681548110611d7457611d746133c1565b906000526020600020015403611e045782611d906001846134dc565b63ffffffff1681548110611da657611da66133c1565b9060005260206000200154838263ffffffff1681548110611dc957611dc96133c1565b906000526020600020018190555082805480611de757611de761356a565b600190038181906000526020600020016000905590555050505050565b80611e0e81613415565b915050611d47565b5060405162461bcd60e51b815260206004820152600d60248201527f4552525f4e4f545f464f554e44000000000000000000000000000000000000006044820152606401610620565b606580546001600160a01b0383811673ffffffffffffffffffffffffffffffffffffffff19831681179093556040519116919082907f8be0079c531659141344cd1fd0a4f28419497f9722a3daafe3b4186f6b6457e090600090a35050565b60008054610100900460ff1615611f5b578160ff166001148015611ee15750303b155b611f535760405162461bcd60e51b815260206004820152602e60248201527f496e697469616c697a61626c653a20636f6e747261637420697320616c72656160448201527f647920696e697469616c697a65640000000000000000000000000000000000006064820152608401610620565b506000919050565b60005460ff808416911610611fd85760405162461bcd60e51b815260206004820152602e60248201527f496e697469616c697a61626c653a20636f6e747261637420697320616c72656160448201527f647920696e697469616c697a65640000000000000000000000000000000000006064820152608401610620565b506000805460ff191660ff92909216919091179055600190565b919050565b600054610100900460ff166120625760405162461bcd60e51b815260206004820152602b60248201527f496e697469616c697a61626c653a20636f6e7472616374206973206e6f74206960448201526a6e697469616c697a696e6760a81b6064820152608401610620565b6112c5612531565b600054610100900460ff166120d55760405162461bcd60e51b815260206004820152602b60248201527f496e697469616c697a61626c653a20636f6e7472616374206973206e6f74206960448201526a6e697469616c697a696e6760a81b6064820152608401610620565b6112c56125a5565b600054610100900460ff166112c55760405162461bcd60e51b815260206004820152602b60248201527f496e697469616c697a61626c653a20636f6e7472616374206973206e6f74206960448201526a6e697469616c697a696e6760a81b6064820152608401610620565b610e228282611a20565b60006113a68383612616565b60006105aa825490565b600082815260c9602090815260408083206001600160a01b038516845290915290205460ff16610e22576121a6816001600160a01b03166014612640565b6121b1836020612640565b6040516020016121c2929190613580565b60408051601f198184030181529082905262461bcd60e51b825261062091600401613121565b600082815260c9602090815260408083206001600160a01b038516845290915290205460ff16610e2257600082815260c9602090815260408083206001600160a01b03851684529091529020805460ff191660011790556122463390565b6001600160a01b0316816001600160a01b0316837f2f8788117e7eff1d82e926ec794901d17c78024a50270940304540a733656f0d60405160405180910390a45050565b60006113a6836001600160a01b038416612805565b600082815260c9602090815260408083206001600160a01b038516845290915290205460ff1615610e2257600082815260c9602090815260408083206001600160a01b0385168085529252808320805460ff1916905551339285917ff6391f5c32d9c69d2a47ea670b442974b53935d1edc7fd64eb21e047a839171b9190a45050565b60006113a6836001600160a01b038416612854565b60408051602a8082526060828101909352600091906020820181803683370190505090506000839050600360fc1b82600081518110612378576123786133c1565b60200101906001600160f81b031916908160001a9053507f5800000000000000000000000000000000000000000000000000000000000000826001815181106123c3576123c36133c1565b60200101906001600160f81b031916908160001a90535060005b60148110156124c95760006123f3826013613438565b6123fe90600861344f565b6001600160a01b038416901c9050600f600482901c16600061242360f0841684613601565b905061242e82612947565b8661243a86600261344f565b612445906002613498565b81518110612455576124556133c1565b60200101906001600160f81b031916908160001a90535061247581612947565b8661248186600261344f565b61248c906003613498565b8151811061249c5761249c6133c1565b60200101906001600160f81b031916908160001a90535050505080806124c190613501565b9150506123dd565b50909392505050565b60006124de8251612974565b826040516020016124f0929190613624565b604051602081830303815290604052805190602001209050919050565b600080600061251c8585612a7d565b9150915061252981612aeb565b509392505050565b600054610100900460ff1661259c5760405162461bcd60e51b815260206004820152602b60248201527f496e697469616c697a61626c653a20636f6e7472616374206973206e6f74206960448201526a6e697469616c697a696e6760a81b6064820152608401610620565b6112c533611e5f565b600054610100900460ff166126105760405162461bcd60e51b815260206004820152602b60248201527f496e697469616c697a61626c653a20636f6e7472616374206973206e6f74206960448201526a6e697469616c697a696e6760a81b6064820152608401610620565b60018055565b600082600001828154811061262d5761262d6133c1565b9060005260206000200154905092915050565b6060600061264f83600261344f565b61265a906002613498565b67ffffffffffffffff81111561267257612672612e3c565b6040519080825280601f01601f19166020018201604052801561269c576020820181803683370190505b509050600360fc1b816000815181106126b7576126b76133c1565b60200101906001600160f81b031916908160001a9053507f780000000000000000000000000000000000000000000000000000000000000081600181518110612702576127026133c1565b60200101906001600160f81b031916908160001a905350600061272684600261344f565b612731906001613498565b90505b60018111156127b6577f303132333435363738396162636465660000000000000000000000000000000085600f1660108110612772576127726133c1565b1a60f81b828281518110612788576127886133c1565b60200101906001600160f81b031916908160001a90535060049490941c936127af8161367f565b9050612734565b5083156113a65760405162461bcd60e51b815260206004820181905260248201527f537472696e67733a20686578206c656e67746820696e73756666696369656e746044820152606401610620565b600081815260018301602052604081205461284c575081546001818101845560008481526020808220909301849055845484825282860190935260409020919091556105aa565b5060006105aa565b6000818152600183016020526040812054801561293d576000612878600183613438565b855490915060009061288c90600190613438565b90508181146128f15760008660000182815481106128ac576128ac6133c1565b90600052602060002001549050808760000184815481106128cf576128cf6133c1565b6000918252602080832090910192909255918252600188019052604090208390555b85548690806129025761290261356a565b6001900381819060005260206000200160009055905585600101600086815260200190815260200160002060009055600193505050506105aa565b60009150506105aa565b6000600a8260ff16101561296957612960826030613696565b60f81b92915050565b612960826037613696565b60608160000361299b5750506040805180820190915260018152600360fc1b602082015290565b8160005b81156129c557806129af81613501565b91506129be9050600a83613484565b915061299f565b60008167ffffffffffffffff8111156129e0576129e0612e3c565b6040519080825280601f01601f191660200182016040528015612a0a576020820181803683370190505b5090505b8415612a7557612a1f600183613438565b9150612a2c600a866136bb565b612a37906030613498565b60f81b818381518110612a4c57612a4c6133c1565b60200101906001600160f81b031916908160001a905350612a6e600a86613484565b9450612a0e565b949350505050565b6000808251604103612ab35760208301516040840151606085015160001a612aa787828585612ca1565b94509450505050612ae4565b8251604003612adc5760208301516040840151612ad1868383612d8e565b935093505050612ae4565b506000905060025b9250929050565b6000816004811115612aff57612aff6136cf565b03612b075750565b6001816004811115612b1b57612b1b6136cf565b03612b685760405162461bcd60e51b815260206004820152601860248201527f45434453413a20696e76616c6964207369676e617475726500000000000000006044820152606401610620565b6002816004811115612b7c57612b7c6136cf565b03612bc95760405162461bcd60e51b815260206004820152601f60248201527f45434453413a20696e76616c6964207369676e6174757265206c656e677468006044820152606401610620565b6003816004811115612bdd57612bdd6136cf565b03612c355760405162461bcd60e51b815260206004820152602260248201527f45434453413a20696e76616c6964207369676e6174757265202773272076616c604482015261756560f01b6064820152608401610620565b6004816004811115612c4957612c496136cf565b036113725760405162461bcd60e51b815260206004820152602260248201527f45434453413a20696e76616c6964207369676e6174757265202776272076616c604482015261756560f01b6064820152608401610620565b6000807f7fffffffffffffffffffffffffffffff5d576e7357a4501ddfe92f46681b20a0831115612cd85750600090506003612d85565b8460ff16601b14158015612cf057508460ff16601c14155b15612d015750600090506004612d85565b6040805160008082526020820180845289905260ff881692820192909252606081018690526080810185905260019060a0016020604051602081039080840390855afa158015612d55573d6000803e3d6000fd5b5050604051601f1901519150506001600160a01b038116612d7e57600060019250925050612d85565b9150600090505b94509492505050565b6000807f7fffffffffffffffffffffffffffffffffffffffffffffffffffffffffffffff831681612dc460ff86901c601b613498565b9050612dd287828885612ca1565b935093505050935093915050565b600060208284031215612df257600080fd5b81356001600160e01b0319811681146113a657600080fd5b80356001600160a01b0381168114611ff257600080fd5b600060208284031215612e3357600080fd5b6113a682612e0a565b634e487b7160e01b600052604160045260246000fd5b604051601f8201601f1916810167ffffffffffffffff81118282101715612e7b57612e7b612e3c565b604052919050565b600082601f830112612e9457600080fd5b8135602067ffffffffffffffff821115612eb057612eb0612e3c565b8160051b612ebf828201612e52565b9283528481018201928281019087851115612ed957600080fd5b83870192505b84831015612ef857823582529183019190830190612edf565b979650505050505050565b600060208284031215612f1557600080fd5b813567ffffffffffffffff811115612f2c57600080fd5b612a7584828501612e83565b600080600080600060808688031215612f5057600080fd5b612f5986612e0a565b9450612f6760208701612e0a565b935060408601359250606086013567ffffffffffffffff80821115612f8b57600080fd5b818801915088601f830112612f9f57600080fd5b813581811115612fae57600080fd5b896020828501011115612fc057600080fd5b9699959850939650602001949392505050565b60008060408385031215612fe657600080fd5b612fef83612e0a565b9150602083013567ffffffffffffffff81111561300b57600080fd5b61301785828601612e83565b9150509250929050565b600060c082018883526020888185015260408881860152606063ffffffff808a168288015280891660808801525060c060a087015283875180865260e088019150848901955060005b81811015613099578651805184528681015115158785015285015185840152958501959183019160010161306a565b50909d9c50505050505050505050505050565b6000602082840312156130be57600080fd5b5035919050565b600080604083850312156130d857600080fd5b823591506130e860208401612e0a565b90509250929050565b60005b8381101561310c5781810151838201526020016130f4565b8381111561311b576000848401525b50505050565b60208152600082518060208401526131408160408501602087016130f1565b601f01601f19169190910160400192915050565b60008060006060848603121561316957600080fd5b61317284612e0a565b95602085013595506040909401359392505050565b600081518084526020808501945080840160005b838110156131b75781518752958201959082019060010161319b565b509495945050505050565b6040815260006131d56040830185613187565b90508260208301529392505050565b600082601f8301126131f557600080fd5b813567ffffffffffffffff81111561320f5761320f612e3c565b613222601f8201601f1916602001612e52565b81815284602083860101111561323757600080fd5b816020850160208301376000918101602001919091529392505050565b6000806000806080858703121561326a57600080fd5b843567ffffffffffffffff8082111561328257600080fd5b61328e88838901612e83565b955060208701359150808211156132a457600080fd5b6132b088838901612e83565b94506040870135935060608701359150808211156132cd57600080fd5b506132da878288016131e4565b91505092959194509250565b600080604083850312156132f957600080fd5b50508035926020909101359150565b60008060006060848603121561331d57600080fd5b833567ffffffffffffffff8082111561333557600080fd5b61334187838801612e83565b945060208601359350604086013591508082111561335e57600080fd5b5061336b868287016131e4565b9150509250925092565b6000806040838503121561338857600080fd5b61339183612e0a565b946020939093013593505050565b6000602082840312156133b157600080fd5b815180151581146113a657600080fd5b634e487b7160e01b600052603260045260246000fd5b634e487b7160e01b600052601160045260246000fd5b600063ffffffff80831681851680830382111561340c5761340c6133d7565b01949350505050565b600063ffffffff80831681810361342e5761342e6133d7565b6001019392505050565b60008282101561344a5761344a6133d7565b500390565b6000816000190483118215151615613469576134696133d7565b500290565b634e487b7160e01b600052601260045260246000fd5b6000826134935761349361346e565b500490565b600082198211156134ab576134ab6133d7565b500190565b6020815260006113a66020830184613187565b6000602082840312156134d557600080fd5b5051919050565b600063ffffffff838116908316818110156134f9576134f96133d7565b039392505050565b600060018201613513576135136133d7565b5060010190565b60008451602061352d8285838a016130f1565b9083018581528451908201919085820160005b8281101561355c57815185529383019390830190600101613540565b509298975050505050505050565b634e487b7160e01b600052603160045260246000fd5b7f416363657373436f6e74726f6c3a206163636f756e74200000000000000000008152600083516135b88160178501602088016130f1565b7f206973206d697373696e6720726f6c652000000000000000000000000000000060179184019182015283516135f58160288401602088016130f1565b01602801949350505050565b600060ff821660ff84168082101561361b5761361b6133d7565b90039392505050565b7f19457468657265756d205369676e6564204d6573736167653a0a00000000000081526000835161365c81601a8501602088016130f1565b83519083019061367381601a8401602088016130f1565b01601a01949350505050565b60008161368e5761368e6133d7565b506000190190565b600060ff821660ff84168060ff038211156136b3576136b36133d7565b019392505050565b6000826136ca576136ca61346e565b500690565b634e487b7160e01b600052602160045260246000fdfea264697066735822122053d344558a11a74b4c9ed946dce940a1cfee8b34beee87344df2b1af51b6e66864736f6c634300080f0033",
  "linkReferences": {},
  "deployedLinkReferences": {}
}