{
  "_format": "hh-sol-artifact-1",
  "contractName": "SpaceStaking",
  "sourceName": "contracts/SpaceStaking.sol",
  "abi": [
    {
      "anonymous": false,
      "inputs": [
        {
          "indexed": true,
          "internalType": "address",
          "name": "staker",
          "type": "address"
        },
        {
          "indexed": false,
          "internalType": "uint256",
          "name": "amount",
          "type": "uint256"
        }
      ],
      "name": "Claim",
      "type": "event"
    },
    {
      "anonymous": false,
      "inputs": [
        {
          "indexed": false,
          "internalType": "uint8",
          "name": "version",
          "type": "uint8"
        }
      ],
      "name": "Initialized",
      "type": "event"
    },
    {
      "anonymous": false,
      "inputs": [
        {
          "indexed": true,
          "internalType": "address",
          "name": "previousOwner",
          "type": "address"
        },
        {
          "indexed": true,
          "internalType": "address",
          "name": "newOwner",
          "type": "address"
        }
      ],
      "name": "OwnershipTransferred",
      "type": "event"
    },
    {
      "anonymous": false,
      "inputs": [
        {
          "indexed": true,
          "internalType": "bytes32",
          "name": "role",
          "type": "bytes32"
        },
        {
          "indexed": true,
          "internalType": "bytes32",
          "name": "previousAdminRole",
          "type": "bytes32"
        },
        {
          "indexed": true,
          "internalType": "bytes32",
          "name": "newAdminRole",
          "type": "bytes32"
        }
      ],
      "name": "RoleAdminChanged",
      "type": "event"
    },
    {
      "anonymous": false,
      "inputs": [
        {
          "indexed": true,
          "internalType": "bytes32",
          "name": "role",
          "type": "bytes32"
        },
        {
          "indexed": true,
          "internalType": "address",
          "name": "account",
          "type": "address"
        },
        {
          "indexed": true,
          "internalType": "address",
          "name": "sender",
          "type": "address"
        }
      ],
      "name": "RoleGranted",
      "type": "event"
    },
    {
      "anonymous": false,
      "inputs": [
        {
          "indexed": true,
          "internalType": "bytes32",
          "name": "role",
          "type": "bytes32"
        },
        {
          "indexed": true,
          "internalType": "address",
          "name": "account",
          "type": "address"
        },
        {
          "indexed": true,
          "internalType": "address",
          "name": "sender",
          "type": "address"
        }
      ],
      "name": "RoleRevoked",
      "type": "event"
    },
    {
      "anonymous": false,
      "inputs": [
        {
          "indexed": true,
          "internalType": "address",
          "name": "staker",
          "type": "address"
        },
        {
          "indexed": false,
          "internalType": "uint256[]",
          "name": "tokensIds",
          "type": "uint256[]"
        }
      ],
      "name": "Stake",
      "type": "event"
    },
    {
      "anonymous": false,
      "inputs": [
        {
          "indexed": true,
          "internalType": "address",
          "name": "staker",
          "type": "address"
        },
        {
          "indexed": false,
          "internalType": "uint256[]",
          "name": "tokensIds",
          "type": "uint256[]"
        }
      ],
      "name": "Unstake",
      "type": "event"
    },
    {
      "inputs": [],
      "name": "DEFAULT_ADMIN_ROLE",
      "outputs": [
        {
          "internalType": "bytes32",
          "name": "",
          "type": "bytes32"
        }
      ],
      "stateMutability": "view",
      "type": "function"
    },
    {
      "inputs": [
        {
          "internalType": "uint256[]",
          "name": "signedTokenIds",
          "type": "uint256[]"
        },
        {
          "internalType": "uint256",
          "name": "nonce",
          "type": "uint256"
        },
        {
          "internalType": "bytes",
          "name": "signature",
          "type": "bytes"
        }
      ],
      "name": "claim",
      "outputs": [],
      "stateMutability": "nonpayable",
      "type": "function"
    },
    {
      "inputs": [
        {
          "internalType": "address",
          "name": "sender",
          "type": "address"
        },
        {
          "internalType": "uint256[]",
          "name": "signedTokenIds",
          "type": "uint256[]"
        }
      ],
      "name": "claimable",
      "outputs": [
        {
          "internalType": "uint256",
          "name": "amount",
          "type": "uint256"
        },
        {
          "internalType": "uint256",
          "name": "amountPerDay",
          "type": "uint256"
        },
        {
          "internalType": "uint256",
          "name": "effectiveTime",
          "type": "uint256"
        },
        {
          "internalType": "uint32",
          "name": "pairs",
          "type": "uint32"
        },
        {
          "internalType": "uint32",
          "name": "singles",
          "type": "uint32"
        },
        {
          "components": [
            {
              "internalType": "uint256",
              "name": "tokenId",
              "type": "uint256"
            },
            {
              "internalType": "bool",
              "name": "hasPair",
              "type": "bool"
            },
            {
              "internalType": "uint256",
              "name": "perDay",
              "type": "uint256"
            }
          ],
          "internalType": "struct SpaceStaking.ClaimableItem[]",
          "name": "items",
          "type": "tuple[]"
        }
      ],
      "stateMutability": "view",
      "type": "function"
    },
    {
      "inputs": [
        {
          "internalType": "bytes32",
          "name": "role",
          "type": "bytes32"
        }
      ],
      "name": "getRoleAdmin",
      "outputs": [
        {
          "internalType": "bytes32",
          "name": "",
          "type": "bytes32"
        }
      ],
      "stateMutability": "view",
      "type": "function"
    },
    {
      "inputs": [
        {
          "internalType": "bytes32",
          "name": "role",
          "type": "bytes32"
        },
        {
          "internalType": "uint256",
          "name": "index",
          "type": "uint256"
        }
      ],
      "name": "getRoleMember",
      "outputs": [
        {
          "internalType": "address",
          "name": "",
          "type": "address"
        }
      ],
      "stateMutability": "view",
      "type": "function"
    },
    {
      "inputs": [
        {
          "internalType": "bytes32",
          "name": "role",
          "type": "bytes32"
        }
      ],
      "name": "getRoleMemberCount",
      "outputs": [
        {
          "internalType": "uint256",
          "name": "",
          "type": "uint256"
        }
      ],
      "stateMutability": "view",
      "type": "function"
    },
    {
      "inputs": [
        {
          "internalType": "bytes32",
          "name": "role",
          "type": "bytes32"
        },
        {
          "internalType": "address",
          "name": "account",
          "type": "address"
        }
      ],
      "name": "grantRole",
      "outputs": [],
      "stateMutability": "nonpayable",
      "type": "function"
    },
    {
      "inputs": [
        {
          "internalType": "bytes32",
          "name": "role",
          "type": "bytes32"
        },
        {
          "internalType": "address",
          "name": "account",
          "type": "address"
        }
      ],
      "name": "hasRole",
      "outputs": [
        {
          "internalType": "bool",
          "name": "",
          "type": "bool"
        }
      ],
      "stateMutability": "view",
      "type": "function"
    },
    {
      "inputs": [],
      "name": "initialize",
      "outputs": [],
      "stateMutability": "nonpayable",
      "type": "function"
    },
    {
      "inputs": [],
      "name": "nftContract",
      "outputs": [
        {
          "internalType": "contract IERC721",
          "name": "",
          "type": "address"
        }
      ],
      "stateMutability": "view",
      "type": "function"
    },
    {
      "inputs": [
        {
          "internalType": "address",
          "name": "",
          "type": "address"
        },
        {
          "internalType": "address",
          "name": "from",
          "type": "address"
        },
        {
          "internalType": "uint256",
          "name": "",
          "type": "uint256"
        },
        {
          "internalType": "bytes",
          "name": "",
          "type": "bytes"
        }
      ],
      "name": "onERC721Received",
      "outputs": [
        {
          "internalType": "bytes4",
          "name": "",
          "type": "bytes4"
        }
      ],
      "stateMutability": "pure",
      "type": "function"
    },
    {
      "inputs": [],
      "name": "owner",
      "outputs": [
        {
          "internalType": "address",
          "name": "",
          "type": "address"
        }
      ],
      "stateMutability": "view",
      "type": "function"
    },
    {
      "inputs": [],
      "name": "renounceOwnership",
      "outputs": [],
      "stateMutability": "nonpayable",
      "type": "function"
    },
    {
      "inputs": [
        {
          "internalType": "bytes32",
          "name": "role",
          "type": "bytes32"
        },
        {
          "internalType": "address",
          "name": "account",
          "type": "address"
        }
      ],
      "name": "renounceRole",
      "outputs": [],
      "stateMutability": "nonpayable",
      "type": "function"
    },
    {
      "inputs": [
        {
          "internalType": "address",
          "name": "owner",
          "type": "address"
        },
        {
          "internalType": "uint256",
          "name": "offset",
          "type": "uint256"
        },
        {
          "internalType": "uint256",
          "name": "limit",
          "type": "uint256"
        }
      ],
      "name": "retrieve",
      "outputs": [
        {
          "internalType": "uint256[]",
          "name": "items",
          "type": "uint256[]"
        },
        {
          "internalType": "uint256",
          "name": "left",
          "type": "uint256"
        }
      ],
      "stateMutability": "view",
      "type": "function"
    },
    {
      "inputs": [
        {
          "internalType": "bytes32",
          "name": "role",
          "type": "bytes32"
        },
        {
          "internalType": "address",
          "name": "account",
          "type": "address"
        }
      ],
      "name": "revokeRole",
      "outputs": [],
      "stateMutability": "nonpayable",
      "type": "function"
    },
    {
      "inputs": [],
      "name": "rewardPerDay",
      "outputs": [
        {
          "internalType": "uint256",
          "name": "",
          "type": "uint256"
        }
      ],
      "stateMutability": "view",
      "type": "function"
    },
    {
      "inputs": [],
      "name": "rewardPerSecond",
      "outputs": [
        {
          "internalType": "uint256",
          "name": "",
          "type": "uint256"
        }
      ],
      "stateMutability": "view",
      "type": "function"
    },
    {
      "inputs": [],
      "name": "rewardStartTime",
      "outputs": [
        {
          "internalType": "uint256",
          "name": "",
          "type": "uint256"
        }
      ],
      "stateMutability": "view",
      "type": "function"
    },
    {
      "inputs": [],
      "name": "signerAddress",
      "outputs": [
        {
          "internalType": "address",
          "name": "",
          "type": "address"
        }
      ],
      "stateMutability": "view",
      "type": "function"
    },
    {
      "inputs": [
        {
          "internalType": "uint256[]",
          "name": "tokenIds",
          "type": "uint256[]"
        }
      ],
      "name": "stake",
      "outputs": [],
      "stateMutability": "nonpayable",
      "type": "function"
    },
    {
      "inputs": [
        {
          "internalType": "uint256",
          "name": "",
          "type": "uint256"
        }
      ],
      "name": "stakedBy",
      "outputs": [
        {
          "internalType": "address",
          "name": "",
          "type": "address"
        }
      ],
      "stateMutability": "view",
      "type": "function"
    },
    {
      "inputs": [
        {
          "internalType": "address",
          "name": "",
          "type": "address"
        }
      ],
      "name": "stakedEffectiveTime",
      "outputs": [
        {
          "internalType": "uint256",
          "name": "",
          "type": "uint256"
        }
      ],
      "stateMutability": "view",
      "type": "function"
    },
    {
      "inputs": [
        {
          "internalType": "address",
          "name": "",
          "type": "address"
        }
      ],
      "name": "stakedNftsCount",
      "outputs": [
        {
          "internalType": "uint32",
          "name": "",
          "type": "uint32"
        }
      ],
      "stateMutability": "view",
      "type": "function"
    },
    {
      "inputs": [
        {
          "internalType": "address",
          "name": "",
          "type": "address"
        },
        {
          "internalType": "uint256",
          "name": "",
          "type": "uint256"
        }
      ],
      "name": "stakedNftsEntries",
      "outputs": [
        {
          "internalType": "uint256",
          "name": "",
          "type": "uint256"
        }
      ],
      "stateMutability": "view",
      "type": "function"
    },
    {
      "inputs": [
        {
          "internalType": "address",
          "name": "nft_",
          "type": "address"
        }
      ],
      "name": "sudoUpdateNFT",
      "outputs": [],
      "stateMutability": "nonpayable",
      "type": "function"
    },
    {
      "inputs": [
        {
          "internalType": "address",
          "name": "signer_",
          "type": "address"
        }
      ],
      "name": "sudoUpdateSigner",
      "outputs": [],
      "stateMutability": "nonpayable",
      "type": "function"
    },
    {
      "inputs": [
        {
          "internalType": "address",
          "name": "token_",
          "type": "address"
        }
      ],
      "name": "sudoUpdateToken",
      "outputs": [],
      "stateMutability": "nonpayable",
      "type": "function"
    },
    {
      "inputs": [
        {
          "internalType": "bytes4",
          "name": "interfaceId",
          "type": "bytes4"
        }
      ],
      "name": "supportsInterface",
      "outputs": [
        {
          "internalType": "bool",
          "name": "",
          "type": "bool"
        }
      ],
      "stateMutability": "view",
      "type": "function"
    },
    {
      "inputs": [],
      "name": "tokenContract",
      "outputs": [
        {
          "internalType": "contract IAntimatter",
          "name": "",
          "type": "address"
        }
      ],
      "stateMutability": "view",
      "type": "function"
    },
    {
      "inputs": [
        {
          "internalType": "address",
          "name": "newOwner",
          "type": "address"
        }
      ],
      "name": "transferOwnership",
      "outputs": [],
      "stateMutability": "nonpayable",
      "type": "function"
    },
    {
      "inputs": [
        {
          "internalType": "uint256[]",
          "name": "tokenIds",
          "type": "uint256[]"
        },
        {
          "internalType": "uint256[]",
          "name": "signedTokenIds",
          "type": "uint256[]"
        },
        {
          "internalType": "uint256",
          "name": "nonce",
          "type": "uint256"
        },
        {
          "internalType": "bytes",
          "name": "signature",
          "type": "bytes"
        }
      ],
      "name": "unstake",
      "outputs": [],
      "stateMutability": "nonpayable",
      "type": "function"
    },
    {
      "inputs": [],
      "name": "version",
      "outputs": [
        {
          "internalType": "string",
          "name": "",
          "type": "string"
        }
      ],
      "stateMutability": "pure",
      "type": "function"
    }
  ],
  "bytecode": "0x608060405234801561001057600080fd5b50613743806100206000396000f3fe608060405234801561001057600080fd5b506004361061020b5760003560e01c80638129fc1c1161012a578063a217fddf116100bd578063d547741f1161008c578063e621879711610071578063e621879714610533578063f2fde38b14610546578063fd4900711461055957600080fd5b8063d547741f1461050c578063d56d229d1461051f57600080fd5b8063a217fddf146104d4578063af8f42b8146104dc578063c7f08649146104e6578063ca15c873146104f957600080fd5b8063908ec7cb116100f9578063908ec7cb1461044b57806391d148541461045e5780639ee4af10146104975780639f47a27a146104c157600080fd5b80638129fc1c146104175780638da5cb5b1461041f5780638f10369a146104305780639010d07c1461043857600080fd5b806333611d4c116101a257806356dfffe01161017157806356dfffe0146103c75780635b7633d0146103e85780636d7d07f3146103fc578063715018a61461040f57600080fd5b806333611d4c1461032857806336568abe1461034957806354fd4d501461035c57806355a373d61461039b57600080fd5b806322d95eac116101de57806322d95eac146102b5578063248a9ca3146102da5780632cc138be1461030b5780632f2ff15d1461031557600080fd5b806301ffc9a714610210578063099e7a0c146102385780630fbf0a9314610274578063150b7a0214610289575b600080fd5b61022361021e366004612e08565b61056c565b60405190151581526020015b60405180910390f35b61025f610246366004612e49565b61012d6020526000908152604090205463ffffffff1681565b60405163ffffffff909116815260200161022f565b610287610282366004612f2b565b6105b0565b005b61029c610297366004612f60565b6109d7565b6040516001600160e01b0319909116815260200161022f565b6102c86102c3366004612ffb565b610a5a565b60405161022f96959493929190613049565b6102fd6102e83660046130d4565b600090815260c9602052604090206001015490565b60405190815260200161022f565b6102fd6101325481565b6102876103233660046130ed565b610d98565b6102fd610336366004612e49565b61012e6020526000908152604090205481565b6102876103573660046130ed565b610dc2565b604080518082018252600581527f312e302e330000000000000000000000000000000000000000000000000000006020820152905161022f9190613149565b610135546103af906001600160a01b031681565b6040516001600160a01b03909116815260200161022f565b6103da6103d536600461317c565b610e4e565b60405161022f9291906131ea565b610133546103af906001600160a01b031681565b61028761040a36600461327c565b610fd0565b610287611289565b6102876112ef565b6065546001600160a01b03166103af565b6102fd61139d565b6103af61044636600461330e565b6113b6565b610287610459366004612e49565b6113d5565b61022361046c3660046130ed565b600091825260c9602090815260408084206001600160a01b0393909316845291905290205460ff1690565b6103af6104a53660046130d4565b610130602052600090815260409020546001600160a01b031681565b6102876104cf366004612e49565b611455565b6102fd600081565b6102fd6101315481565b6102876104f4366004613330565b61157e565b6102fd6105073660046130d4565b6115ea565b61028761051a3660046130ed565b611601565b610134546103af906001600160a01b031681565b6102fd61054136600461339d565b611626565b610287610554366004612e49565b611658565b610287610567366004612e49565b611737565b60006001600160e01b031982167f5a05180f0000000000000000000000000000000000000000000000000000000014806105aa57506105aa826117b7565b92915050565b6101345433906001600160a01b0316158015906105d85750610135546001600160a01b031615155b6106295760405162461bcd60e51b815260206004820152600960248201527f4552525f5345545550000000000000000000000000000000000000000000000060448201526064015b60405180910390fd5b610134546040517fe985e9c50000000000000000000000000000000000000000000000000000000081526001600160a01b0383811660048301523060248301529091169063e985e9c590604401602060405180830381865afa158015610693573d6000803e3d6000fd5b505050506040513d601f19601f820116820180604052508101906106b791906133c7565b6107035760405162461bcd60e51b815260206004820152600b60248201527f4552525f415050524f56450000000000000000000000000000000000000000006044820152606401610620565b815163ffffffff81166107585760405162461bcd60e51b815260206004820152600960248201527f4552525f454d50545900000000000000000000000000000000000000000000006044820152606401610620565b6001600160a01b038216600090815261012d602052604081205463ffffffff16905b8263ffffffff168163ffffffff16101561089c576000858263ffffffff16815181106107a8576107a86133e9565b602090810291909101015161013454604051632142170760e11b81526001600160a01b038881166004830152306024830152604482018490529293509116906342842e0e90606401600060405180830381600087803b15801561080a57600080fd5b505af115801561081e573d6000803e3d6000fd5b5050505060018361082f9190613415565b6001600160a01b038616600081815261012f60209081526040808320805460018101825590845282842001869055948252610130905292909220805473ffffffffffffffffffffffffffffffffffffffff19169092179091559150806108948161343d565b91505061077a565b506001600160a01b038316600090815261012e602052604081205490036108de576001600160a01b038316600090815261012e6020526040902042905561096d565b6001600160a01b038316600090815261012e60205260408120546109029042613460565b6001600160a01b038516600090815261012d602052604090205490915063ffffffff80841691610933911683613477565b61093d91906134ac565b6001600160a01b038516600090815261012e6020526040812080549091906109669084906134c0565b9091555050505b6001600160a01b038316600081815261012d602052604090819020805463ffffffff191663ffffffff8516179055517fbd6539044374e650773e9c709c54c777fc38f8ff96c2619e7012817e0f987cfa906109c99087906134d8565b60405180910390a250505050565b60006001600160a01b038516610a2f5760405162461bcd60e51b815260206004820152600f60248201527f4552525f4449524543545f4d494e5400000000000000000000000000000000006044820152606401610620565b507f150b7a020000000000000000000000000000000000000000000000000000000095945050505050565b6101355460009081908190819081906060906001600160a01b0316610ac15760405162461bcd60e51b815260206004820152600960248201527f4552525f534554555000000000000000000000000000000000000000000000006044820152606401610620565b610135546040516370a0823160e01b81523060048201526000916001600160a01b0316906370a0823190602401602060405180830381865afa158015610b0b573d6000803e3d6000fd5b505050506040513d601f19601f82011682018060405250810190610b2f91906134eb565b6001600160a01b038a16600090815261012e602052604081205491925090610b579042613460565b895190915060005b8163ffffffff168163ffffffff161015610be05760008b8263ffffffff1681518110610b8d57610b8d6133e9565b60209081029190910181015160008181526101309092526040909120549091506001600160a01b03808f16911603610bcd57610bca600189613415565b97505b5080610bd88161343d565b915050610b5f565b506001600160a01b038b16600090815261012d6020526040902054610c0c90879063ffffffff16613504565b94506000610c1861139d565b610c289063ffffffff8916613477565b905060006002610c3661139d565b610c469063ffffffff8a16613477565b610c5091906134ac565b90506002610131548863ffffffff16610c699190613477565b610c7391906134ac565b61013154610c879063ffffffff8b16613477565b610c9191906134c0565b995083610c9e82846134c0565b610ca89190613477565b9a508a851015610d7957610cbe6127108c6134ac565b610cc890836134ac565b63ffffffff16610cda612710876134ac565b610ce49190613477565b610cf06127108d6134ac565b610cfa90836134ac565b63ffffffff16610d0c612710886134ac565b610d169190613477565b610d2091906134c0565b9a50610d2e6127108c6134ac565b610d3890866134ac565b610d44612710866134ac565b610d4e9190613477565b6001600160a01b038e16600090815261012e6020526040902054610d7291906134c0565b9850610d7d565b4298505b610d878d8d61181e565b955050505050509295509295509295565b600082815260c96020526040902060010154610db381611a3e565b610dbd8383611a48565b505050565b6001600160a01b0381163314610e405760405162461bcd60e51b815260206004820152602f60248201527f416363657373436f6e74726f6c3a2063616e206f6e6c792072656e6f756e636560448201527f20726f6c657320666f722073656c6600000000000000000000000000000000006064820152608401610620565b610e4a8282611a6a565b5050565b6001600160a01b038316600090815261012f602052604081205460609190610e7684866134c0565b1115610ea4576001600160a01b038516600090815261012f6020526040902054610ea1908590613460565b92505b8267ffffffffffffffff811115610ebd57610ebd612e64565b604051908082528060200260200182016040528015610ee6578160200160208202803683370190505b50915060005b83811015610f61576001600160a01b038616600090815261012f60205260409020610f1782876134c0565b81548110610f2757610f276133e9565b9060005260206000200154838281518110610f4457610f446133e9565b602090810291909101015280610f5981613529565b915050610eec565b50610f6c83856134c0565b6001600160a01b038616600090815261012f60205260409020541115610fc4576001600160a01b038516600090815261012f60205260409020548390610fb3908690613460565b610fbd9190613460565b9050610fc8565b5060005b935093915050565b6002600154036110225760405162461bcd60e51b815260206004820152601f60248201527f5265656e7472616e637947756172643a207265656e7472616e742063616c6c006044820152606401610620565b60026001558351339063ffffffff811661107e5760405162461bcd60e51b815260206004820152600960248201527f4552525f454d50545900000000000000000000000000000000000000000000006044820152606401610620565b6001600160a01b038216600090815261012d602052604090205463ffffffff808316911610156110f05760405162461bcd60e51b815260206004820152600c60248201527f4552525f544f4f5f4d55434800000000000000000000000000000000000000006044820152606401610620565b6110fc82868686611a8c565b60005b8163ffffffff168163ffffffff16101561123b576000878263ffffffff168151811061112d5761112d6133e9565b602090810291909101015161013454604051632142170760e11b81523060048201526001600160a01b038781166024830152604482018490529293509116906342842e0e90606401600060405180830381600087803b15801561118f57600080fd5b505af11580156111a3573d6000803e3d6000fd5b505050506001600160a01b038416600090815261012d602052604081208054600192906111d790849063ffffffff16613504565b92506101000a81548163ffffffff021916908363ffffffff1602179055506111ff8482611d51565b600090815261013060205260409020805473ffffffffffffffffffffffffffffffffffffffff19169055806112338161343d565b9150506110ff565b50816001600160a01b03167f8537ffc096ba30690173694a1630e9cdad3b912b48980d0127edbcfe80076b618760405161127591906134d8565b60405180910390a250506001805550505050565b6065546001600160a01b031633146112e35760405162461bcd60e51b815260206004820181905260248201527f4f776e61626c653a2063616c6c6572206973206e6f7420746865206f776e65726044820152606401610620565b6112ed6000611e87565b565b60006112fb6001611ee6565b90508015611313576000805461ff0019166101001790555b61131b61201f565b611323612092565b61132b612105565b611336600030612170565b611341600033612170565b426101325568056bc75e2d6310000061013155801561139a576000805461ff0019169055604051600181527f7f26b83ff96e1f2b6a682f133852f6798a09c465da95921460cefb38474024989060200160405180910390a15b50565b600062015180610131546113b191906134ac565b905090565b600082815260fb602052604081206113ce908361217a565b9392505050565b60006113e081611a3e565b6001600160a01b0382166114245760405162461bcd60e51b815260206004820152600b60248201526a4552525f4144445245535360a81b6044820152606401610620565b50610133805473ffffffffffffffffffffffffffffffffffffffff19166001600160a01b0392909216919091179055565b600061146081611a3e565b6001600160a01b0382166114a45760405162461bcd60e51b815260206004820152600b60248201526a4552525f4144445245535360a81b6044820152606401610620565b610135805473ffffffffffffffffffffffffffffffffffffffff19166001600160a01b0384169081179091556040516370a0823160e01b8152306004820152600091906370a0823190602401602060405180830381865afa15801561150d573d6000803e3d6000fd5b505050506040513d601f19601f8201168201806040525081019061153191906134eb565b11610e4a5760405162461bcd60e51b815260206004820152601b60248201527f73686f756c642068617320706f7369746976652062616c616e636500000000006044820152606401610620565b6002600154036115d05760405162461bcd60e51b815260206004820152601f60248201527f5265656e7472616e637947756172643a207265656e7472616e742063616c6c006044820152606401610620565b60026001556115e133848484611a8c565b50506001805550565b600081815260fb602052604081206105aa90612186565b600082815260c9602052604090206001015461161c81611a3e565b610dbd8383611a6a565b61012f602052816000526040600020818154811061164357600080fd5b90600052602060002001600091509150505481565b6065546001600160a01b031633146116b25760405162461bcd60e51b815260206004820181905260248201527f4f776e61626c653a2063616c6c6572206973206e6f7420746865206f776e65726044820152606401610620565b6001600160a01b03811661172e5760405162461bcd60e51b815260206004820152602660248201527f4f776e61626c653a206e6577206f776e657220697320746865207a65726f206160448201527f64647265737300000000000000000000000000000000000000000000000000006064820152608401610620565b61139a81611e87565b600061174281611a3e565b6001600160a01b0382166117865760405162461bcd60e51b815260206004820152600b60248201526a4552525f4144445245535360a81b6044820152606401610620565b50610134805473ffffffffffffffffffffffffffffffffffffffff19166001600160a01b0392909216919091179055565b60006001600160e01b031982167f7965db0b0000000000000000000000000000000000000000000000000000000014806105aa57507f01ffc9a7000000000000000000000000000000000000000000000000000000006001600160e01b03198316146105aa565b6001600160a01b038216600090815261012f6020526040902080546060919063ffffffff811667ffffffffffffffff81111561185c5761185c612e64565b6040519080825280602002602001820160405280156118b357816020015b6118a0604051806060016040528060008152602001600015158152602001600081525090565b81526020019060019003908161187a5790505b50925060005b8163ffffffff168163ffffffff161015611a35576000838263ffffffff16815481106118e7576118e76133e9565b9060005260206000200154905080858363ffffffff168151811061190d5761190d6133e9565b602002602001015160000181815250506802b5e3af16b1880000858363ffffffff168151811061193f5761193f6133e9565b602002602001015160400181815250506000858363ffffffff1681518110611969576119696133e9565b60209081029190910181015191151591015260005b8651811015611a20578187828151811061199a5761199a6133e9565b602002602001015103611a0e576001868463ffffffff16815181106119c1576119c16133e9565b6020026020010151602001901515908115158152505068056bc75e2d63100000868463ffffffff16815181106119f9576119f96133e9565b60200260200101516040018181525050611a20565b80611a1881613529565b91505061197e565b50508080611a2d9061343d565b9150506118b9565b50505092915050565b61139a8133612190565b611a528282612210565b600082815260fb60205260409020610dbd90826122b2565b611a7482826122c7565b600082815260fb60205260409020610dbd908261234a565b6000611a973361235f565b8385604051602001611aab93929190613542565b60405160208183030381529060405290506000611ac7826124fa565b90506000611ad58285612535565b610133549091506001600160a01b03808316911614611b365760405162461bcd60e51b815260206004820152600d60248201527f4552525f57524f4e475f534947000000000000000000000000000000000000006044820152606401610620565b6001600160a01b038716600090815261012e60205260409020548511611b9e5760405162461bcd60e51b815260206004820152600f60248201527f4552525f57524f4e475f4e4f4e434500000000000000000000000000000000006044820152606401610620565b42611bab86610e106134c0565b11611bf85760405162461bcd60e51b815260206004820152600d60248201527f4552525f4f4c445f4e4f4e4345000000000000000000000000000000000000006044820152606401610620565b600080611c058989610a5a565b5050506001600160a01b038c8116600081815261012e6020526040908190208490556101355490517fa9059cbb000000000000000000000000000000000000000000000000000000008152600481019290925260248201869052949650919450929092169163a9059cbb91506044016020604051808303816000875af1158015611c93573d6000803e3d6000fd5b505050506040513d601f19601f82011682018060405250810190611cb791906133c7565b611d035760405162461bcd60e51b815260206004820152600e60248201527f4552525f434c41494d5f4641494c0000000000000000000000000000000000006044820152606401610620565b886001600160a01b03167f47cee97cb7acd717b3c0aa1435d004cd5b3c8c57d70dbceb4e4458bbd60e39d483604051611d3e91815260200190565b60405180910390a2505050505050505050565b6001600160a01b038216600090815261012f60205260408120805490915b8163ffffffff168163ffffffff161015611e3e5783838263ffffffff1681548110611d9c57611d9c6133e9565b906000526020600020015403611e2c5782611db8600184613504565b63ffffffff1681548110611dce57611dce6133e9565b9060005260206000200154838263ffffffff1681548110611df157611df16133e9565b906000526020600020018190555082805480611e0f57611e0f613592565b600190038181906000526020600020016000905590555050505050565b80611e368161343d565b915050611d6f565b5060405162461bcd60e51b815260206004820152600d60248201527f4552525f4e4f545f464f554e44000000000000000000000000000000000000006044820152606401610620565b606580546001600160a01b0383811673ffffffffffffffffffffffffffffffffffffffff19831681179093556040519116919082907f8be0079c531659141344cd1fd0a4f28419497f9722a3daafe3b4186f6b6457e090600090a35050565b60008054610100900460ff1615611f83578160ff166001148015611f095750303b155b611f7b5760405162461bcd60e51b815260206004820152602e60248201527f496e697469616c697a61626c653a20636f6e747261637420697320616c72656160448201527f647920696e697469616c697a65640000000000000000000000000000000000006064820152608401610620565b506000919050565b60005460ff8084169116106120005760405162461bcd60e51b815260206004820152602e60248201527f496e697469616c697a61626c653a20636f6e747261637420697320616c72656160448201527f647920696e697469616c697a65640000000000000000000000000000000000006064820152608401610620565b506000805460ff191660ff92909216919091179055600190565b919050565b600054610100900460ff1661208a5760405162461bcd60e51b815260206004820152602b60248201527f496e697469616c697a61626c653a20636f6e7472616374206973206e6f74206960448201526a6e697469616c697a696e6760a81b6064820152608401610620565b6112ed612559565b600054610100900460ff166120fd5760405162461bcd60e51b815260206004820152602b60248201527f496e697469616c697a61626c653a20636f6e7472616374206973206e6f74206960448201526a6e697469616c697a696e6760a81b6064820152608401610620565b6112ed6125cd565b600054610100900460ff166112ed5760405162461bcd60e51b815260206004820152602b60248201527f496e697469616c697a61626c653a20636f6e7472616374206973206e6f74206960448201526a6e697469616c697a696e6760a81b6064820152608401610620565b610e4a8282611a48565b60006113ce838361263e565b60006105aa825490565b600082815260c9602090815260408083206001600160a01b038516845290915290205460ff16610e4a576121ce816001600160a01b03166014612668565b6121d9836020612668565b6040516020016121ea9291906135a8565b60408051601f198184030181529082905262461bcd60e51b825261062091600401613149565b600082815260c9602090815260408083206001600160a01b038516845290915290205460ff16610e4a57600082815260c9602090815260408083206001600160a01b03851684529091529020805460ff1916600117905561226e3390565b6001600160a01b0316816001600160a01b0316837f2f8788117e7eff1d82e926ec794901d17c78024a50270940304540a733656f0d60405160405180910390a45050565b60006113ce836001600160a01b03841661282d565b600082815260c9602090815260408083206001600160a01b038516845290915290205460ff1615610e4a57600082815260c9602090815260408083206001600160a01b0385168085529252808320805460ff1916905551339285917ff6391f5c32d9c69d2a47ea670b442974b53935d1edc7fd64eb21e047a839171b9190a45050565b60006113ce836001600160a01b03841661287c565b60408051602a8082526060828101909352600091906020820181803683370190505090506000839050600360fc1b826000815181106123a0576123a06133e9565b60200101906001600160f81b031916908160001a9053507f5800000000000000000000000000000000000000000000000000000000000000826001815181106123eb576123eb6133e9565b60200101906001600160f81b031916908160001a90535060005b60148110156124f157600061241b826013613460565b612426906008613477565b6001600160a01b038416901c9050600f600482901c16600061244b60f0841684613629565b90506124568261296f565b86612462866002613477565b61246d9060026134c0565b8151811061247d5761247d6133e9565b60200101906001600160f81b031916908160001a90535061249d8161296f565b866124a9866002613477565b6124b49060036134c0565b815181106124c4576124c46133e9565b60200101906001600160f81b031916908160001a90535050505080806124e990613529565b915050612405565b50909392505050565b6000612506825161299c565b8260405160200161251892919061364c565b604051602081830303815290604052805190602001209050919050565b60008060006125448585612aa5565b9150915061255181612b13565b509392505050565b600054610100900460ff166125c45760405162461bcd60e51b815260206004820152602b60248201527f496e697469616c697a61626c653a20636f6e7472616374206973206e6f74206960448201526a6e697469616c697a696e6760a81b6064820152608401610620565b6112ed33611e87565b600054610100900460ff166126385760405162461bcd60e51b815260206004820152602b60248201527f496e697469616c697a61626c653a20636f6e7472616374206973206e6f74206960448201526a6e697469616c697a696e6760a81b6064820152608401610620565b60018055565b6000826000018281548110612655576126556133e9565b9060005260206000200154905092915050565b60606000612677836002613477565b6126829060026134c0565b67ffffffffffffffff81111561269a5761269a612e64565b6040519080825280601f01601f1916602001820160405280156126c4576020820181803683370190505b509050600360fc1b816000815181106126df576126df6133e9565b60200101906001600160f81b031916908160001a9053507f78000000000000000000000000000000000000000000000000000000000000008160018151811061272a5761272a6133e9565b60200101906001600160f81b031916908160001a905350600061274e846002613477565b6127599060016134c0565b90505b60018111156127de577f303132333435363738396162636465660000000000000000000000000000000085600f166010811061279a5761279a6133e9565b1a60f81b8282815181106127b0576127b06133e9565b60200101906001600160f81b031916908160001a90535060049490941c936127d7816136a7565b905061275c565b5083156113ce5760405162461bcd60e51b815260206004820181905260248201527f537472696e67733a20686578206c656e67746820696e73756666696369656e746044820152606401610620565b6000818152600183016020526040812054612874575081546001818101845560008481526020808220909301849055845484825282860190935260409020919091556105aa565b5060006105aa565b600081815260018301602052604081205480156129655760006128a0600183613460565b85549091506000906128b490600190613460565b90508181146129195760008660000182815481106128d4576128d46133e9565b90600052602060002001549050808760000184815481106128f7576128f76133e9565b6000918252602080832090910192909255918252600188019052604090208390555b855486908061292a5761292a613592565b6001900381819060005260206000200160009055905585600101600086815260200190815260200160002060009055600193505050506105aa565b60009150506105aa565b6000600a8260ff161015612991576129888260306136be565b60f81b92915050565b6129888260376136be565b6060816000036129c35750506040805180820190915260018152600360fc1b602082015290565b8160005b81156129ed57806129d781613529565b91506129e69050600a836134ac565b91506129c7565b60008167ffffffffffffffff811115612a0857612a08612e64565b6040519080825280601f01601f191660200182016040528015612a32576020820181803683370190505b5090505b8415612a9d57612a47600183613460565b9150612a54600a866136e3565b612a5f9060306134c0565b60f81b818381518110612a7457612a746133e9565b60200101906001600160f81b031916908160001a905350612a96600a866134ac565b9450612a36565b949350505050565b6000808251604103612adb5760208301516040840151606085015160001a612acf87828585612cc9565b94509450505050612b0c565b8251604003612b045760208301516040840151612af9868383612db6565b935093505050612b0c565b506000905060025b9250929050565b6000816004811115612b2757612b276136f7565b03612b2f5750565b6001816004811115612b4357612b436136f7565b03612b905760405162461bcd60e51b815260206004820152601860248201527f45434453413a20696e76616c6964207369676e617475726500000000000000006044820152606401610620565b6002816004811115612ba457612ba46136f7565b03612bf15760405162461bcd60e51b815260206004820152601f60248201527f45434453413a20696e76616c6964207369676e6174757265206c656e677468006044820152606401610620565b6003816004811115612c0557612c056136f7565b03612c5d5760405162461bcd60e51b815260206004820152602260248201527f45434453413a20696e76616c6964207369676e6174757265202773272076616c604482015261756560f01b6064820152608401610620565b6004816004811115612c7157612c716136f7565b0361139a5760405162461bcd60e51b815260206004820152602260248201527f45434453413a20696e76616c6964207369676e6174757265202776272076616c604482015261756560f01b6064820152608401610620565b6000807f7fffffffffffffffffffffffffffffff5d576e7357a4501ddfe92f46681b20a0831115612d005750600090506003612dad565b8460ff16601b14158015612d1857508460ff16601c14155b15612d295750600090506004612dad565b6040805160008082526020820180845289905260ff881692820192909252606081018690526080810185905260019060a0016020604051602081039080840390855afa158015612d7d573d6000803e3d6000fd5b5050604051601f1901519150506001600160a01b038116612da657600060019250925050612dad565b9150600090505b94509492505050565b6000807f7fffffffffffffffffffffffffffffffffffffffffffffffffffffffffffffff831681612dec60ff86901c601b6134c0565b9050612dfa87828885612cc9565b935093505050935093915050565b600060208284031215612e1a57600080fd5b81356001600160e01b0319811681146113ce57600080fd5b80356001600160a01b038116811461201a57600080fd5b600060208284031215612e5b57600080fd5b6113ce82612e32565b634e487b7160e01b600052604160045260246000fd5b604051601f8201601f1916810167ffffffffffffffff81118282101715612ea357612ea3612e64565b604052919050565b600082601f830112612ebc57600080fd5b8135602067ffffffffffffffff821115612ed857612ed8612e64565b8160051b612ee7828201612e7a565b9283528481018201928281019087851115612f0157600080fd5b83870192505b84831015612f2057823582529183019190830190612f07565b979650505050505050565b600060208284031215612f3d57600080fd5b813567ffffffffffffffff811115612f5457600080fd5b612a9d84828501612eab565b600080600080600060808688031215612f7857600080fd5b612f8186612e32565b9450612f8f60208701612e32565b935060408601359250606086013567ffffffffffffffff80821115612fb357600080fd5b818801915088601f830112612fc757600080fd5b813581811115612fd657600080fd5b896020828501011115612fe857600080fd5b9699959850939650602001949392505050565b6000806040838503121561300e57600080fd5b61301783612e32565b9150602083013567ffffffffffffffff81111561303357600080fd5b61303f85828601612eab565b9150509250929050565b600060c082018883526020888185015260408881860152606063ffffffff808a168288015280891660808801525060c060a087015283875180865260e088019150848901955060005b818110156130c15786518051845286810151151587850152850151858401529585019591830191600101613092565b50909d9c50505050505050505050505050565b6000602082840312156130e657600080fd5b5035919050565b6000806040838503121561310057600080fd5b8235915061311060208401612e32565b90509250929050565b60005b8381101561313457818101518382015260200161311c565b83811115613143576000848401525b50505050565b6020815260008251806020840152613168816040850160208701613119565b601f01601f19169190910160400192915050565b60008060006060848603121561319157600080fd5b61319a84612e32565b95602085013595506040909401359392505050565b600081518084526020808501945080840160005b838110156131df578151875295820195908201906001016131c3565b509495945050505050565b6040815260006131fd60408301856131af565b90508260208301529392505050565b600082601f83011261321d57600080fd5b813567ffffffffffffffff81111561323757613237612e64565b61324a601f8201601f1916602001612e7a565b81815284602083860101111561325f57600080fd5b816020850160208301376000918101602001919091529392505050565b6000806000806080858703121561329257600080fd5b843567ffffffffffffffff808211156132aa57600080fd5b6132b688838901612eab565b955060208701359150808211156132cc57600080fd5b6132d888838901612eab565b94506040870135935060608701359150808211156132f557600080fd5b506133028782880161320c565b91505092959194509250565b6000806040838503121561332157600080fd5b50508035926020909101359150565b60008060006060848603121561334557600080fd5b833567ffffffffffffffff8082111561335d57600080fd5b61336987838801612eab565b945060208601359350604086013591508082111561338657600080fd5b506133938682870161320c565b9150509250925092565b600080604083850312156133b057600080fd5b6133b983612e32565b946020939093013593505050565b6000602082840312156133d957600080fd5b815180151581146113ce57600080fd5b634e487b7160e01b600052603260045260246000fd5b634e487b7160e01b600052601160045260246000fd5b600063ffffffff808316818516808303821115613434576134346133ff565b01949350505050565b600063ffffffff808316818103613456576134566133ff565b6001019392505050565b600082821015613472576134726133ff565b500390565b6000816000190483118215151615613491576134916133ff565b500290565b634e487b7160e01b600052601260045260246000fd5b6000826134bb576134bb613496565b500490565b600082198211156134d3576134d36133ff565b500190565b6020815260006113ce60208301846131af565b6000602082840312156134fd57600080fd5b5051919050565b600063ffffffff83811690831681811015613521576135216133ff565b039392505050565b60006001820161353b5761353b6133ff565b5060010190565b6000845160206135558285838a01613119565b9083018581528451908201919085820160005b8281101561358457815185529383019390830190600101613568565b509298975050505050505050565b634e487b7160e01b600052603160045260246000fd5b7f416363657373436f6e74726f6c3a206163636f756e74200000000000000000008152600083516135e0816017850160208801613119565b7f206973206d697373696e6720726f6c6520000000000000000000000000000000601791840191820152835161361d816028840160208801613119565b01602801949350505050565b600060ff821660ff841680821015613643576136436133ff565b90039392505050565b7f19457468657265756d205369676e6564204d6573736167653a0a00000000000081526000835161368481601a850160208801613119565b83519083019061369b81601a840160208801613119565b01601a01949350505050565b6000816136b6576136b66133ff565b506000190190565b600060ff821660ff84168060ff038211156136db576136db6133ff565b019392505050565b6000826136f2576136f2613496565b500690565b634e487b7160e01b600052602160045260246000fdfea2646970667358221220a70e47bdc58b7f6369d9817306397f8a063f5deafe4b152645386a0879ac2bcc64736f6c634300080f0033",
  "linkReferences": {},
  "deployedLinkReferences": {}
}